:100000000C944B000C9400000C9400000C948300A2
:100010000C9400000C9400000C9400000C94000060
:100020000C9400000C9400000C9400000C94000050
:100030000C9400000C9400000C9400000C94000040
:100040000C9400000C9400000C9400000C94000030
:100050000C9400000C9400000C9400000C94000020
:100060000C9400000C9400003C0064000AD7233D6F
:1000700001002D4E414E00494E4600000100220372
:100080006800010023036A00040024036C000100DF
:100090002C0370000000F894EE27EFBBF1E0F5BFF1
:1000A000E5BFF8E1A895A4B7A77FA4BFF0936000CF
:1000B000E09360008DE0A2E0BB27ED938A95E9F71D
:1000C00080E098E0A0E0B1E0ED930197E9F7ECE77C
:1000D000F0E085919591009761F0A591B59105901B
:1000E0001590BF01F00105900D920197E1F7FB011A
:1000F000F0CFE0E0EEBBEFEFEDBFE8E0EEBFC0E039
:10010000D3E00C9421050A921A92FA926A937A9398
:100110008A939A93AA93BA93EA93FA93EFB7EA93DE
:10012000E0E0E0936B000E949B36E0930803F093BD
:100130000903E1E0E0930603E0910703F0E0EB310F
:10014000A0E0FA0711F4B9D441C1EB32A0E0FA07FC
:1001500019F40E942B363AC1EB33A0E0FA0749F4B8
:10016000EFE4EBB9A1E0B0E00E944B36EFE4EBB96D
:100170002DC1EB34A0E0FA0749F4E0910803F091B7
:100180000903E0930003F093010320C1EB35A0E0E5
:10019000FA0749F4E0910803F0910903E0930203A0
:1001A000F093030313C1EB36A0E0FA0749F4E091A2
:1001B0000803F0910903E0930403F093050306C1DB
:1001C000EB38A0E0FA0779F4A0910803B091090395
:1001D000119731F0A0910803B0910903109711F421
:1001E000C0900803F3C0EB39A0E0FA0711F00C94BB
:1001F0007101A0910803B0910903119739F0A09102
:100200000803B0910903109709F06AC0E091080350
:10021000E0931303A0911303A13021F4A0910E03E6
:10022000A03009F05DC0E0912203FF276627772701
:100230000E94C237DF01CB01E0E0F0E068EC72E43D
:100240000E949A38A0E0B0E08FE794E40E944C3816
:10025000E0931E03F0931F03609320037093210328
:10026000E0912303F0E00E941D390E94C237DF01B4
:10027000CB01E0E0F0E068EC72E40E949A38A0E084
:10028000B0E08FE794E40E944C38A0911E03B09137
:100290001F0380912003909121030E94DF3809F011
:1002A00010F40C947001E0912303F0E00E941D39DA
:1002B0000E94C237DF01CB01E0E0F0E068EC72E4BD
:1002C0000E949A38A0E0B0E08FE794E40E944C3896
:1002D000E0931E03F0931F036093200370932103A8
:1002E00075C0EB3AA0E0FA07B1F4A0910803B09111
:1002F0000903A53FE6E0BE0720F4AC30E3E0BE070B
:1003000008F408C0E0910803F0910903E093110399
:10031000F09312035BC0EB3CA0E0FA0719F40E94D3
:100320008E3654C0EB3DA0E0FA0711F44ED34EC018
:10033000EB3EA0E0FA0749F4E0910803F0910903CD
:10034000E0931703F093180341C0EB3FA0E0FA07D6
:1003500029F4E0910803E093100338C0EA30A0E0EC
:10036000FA0729F4E0910803E09322032FC0EA3151
:10037000A0E0FA0779F4A0910803B0910903A5362B
:10038000E0E0BE0710F0E4E602C0E0910803E0936D
:1003900023031CC0EA32A0E0FA07C1F4E09108038D
:1003A000F0910903662777270E94C237DF01CB014E
:1003B000E0E0F0E06AE774E40E949A38E0932403F6
:1003C000F09325036093260370932703E0E2E09304
:1003D0006B00E991EFBFF991E991B991A9919991D8
:1003E000899179916991F9901990099018952A98B5
:1003F000A1E0B0E00E944B362A9A2298A1E0B0E03A
:100400000E944B36229AACECA7D0AEE4A5D0A0E077
:10041000A3D0A0E0A1D0AFE79FD008950E945A39A1
:1004200000E010E020E030E050E0E0E0E093060380
:100430002A98A1E0B0E00E944B362A9A2298A1E0C7
:10044000B0E00E944B36229AACEC86D0AEEB84D062
:10045000ABD00E2F1127A8D0FE2FE0E00E0F1F1FEC
:1004600017FF08C051E0EFEFFFEFE01BF10B3196F3
:100470008F0101C050E020E030E000FF02C02F5BA0
:100480003F4F01FF02C023583F4F02FF02C02650DA
:100490003F4F03FF02C02C503E4FF8010E940E391F
:1004A000AAE0B0E00E942239BF01D901E4E6F0E001
:1004B0000E942A39E60FF71F8F01513031F4E0E036
:1004C000F5E0E01BF10B8F0102C000501B4F2A9892
:1004D000A1E0B0E00E944B362A9A2298A1E0B0E059
:1004E0000E944B36229AACEC37D0A4E435D0E09190
:1004F0000603E03071F400240016010629F0EFEF46
:10050000FFEFE017F10709F404C000930A0310930A
:100510000B030E946139269608952A98A1E0B0E065
:100520000E944B362A9A2298A1E0B0E00E944B36F6
:10053000229AACEC11D0A1E0B0E00E944B36AEE4C0
:100540000BD0A0E009D0A0E007D0AFE705D0A1E034
:10055000B0E00E944B360895AA930E945C393C811A
:1005600010E01830E8F42A9800E0023010F40F5F31
:10057000FCCFE5B1AE2FE32FE170EE0FEE0FE4708C
:10058000EA2BE5B900E0023310F40F5FFCCF2A9AA2
:1005900000E0043610F40F5FFCCF36951F5FE1CF0B
:1005A0000E946339259608950E945C3930E010E07E
:1005B000183008F536952A9800E0023010F40F5FE5
:1005C000FCCF2A9A229800E00C3010F40F5FFCCF89
:1005D000E3B1E470E295E07FEE0F3E2B00E00E31D8
:1005E00010F40F5FFCCF229A00E0043610F40F5F86
:1005F000FCCF1F5FDDCFE32F0E946339E4C1E0E051
:10060000E6BD0895E6B5089525970E945A3900E0A1
:1006100010E0E0E0E093B200E7E0E093B100219A5F
:100620002998A1E0B0E00E944B36299A2198E0E099
:10063000EE83EF83E887E987EA8730E020E050E047
:10064000A091B200A03510F00C94B003199904C029
:10065000203011F4503009F002C021E0D0DF199BA6
:1006600004C0203011F0503009F001C051E0199958
:1006700004C0203011F0503009F471C050E0C2DFE6
:100680000E2F1127BCDF313008F1E32FF0E0319756
:100690000E940739DE011696AE0FBF1FEC91EE0FD8
:1006A000EC930F30E0E01E0720F00431E0E01E077D
:1006B00008F00CC0E32FF0E031970E940739DE010B
:1006C0001696AE0FBF1FEC91E160EC933F5F39329D
:1006D00011F00C94AF03AE81BB27EF81F0E0AE0FB9
:1006E000BF1FE885F0E0AE0FBF1FE985F0E0EA0F1D
:1006F000FB1FAE2FEA85EA1789F5FE81E0E0DF01F6
:10070000EF81F0E0EA0FFB1FE0932803F093290349
:10071000F885E0E0DF01E985F0E0EA0FFB1FE093F8
:100720002A03F0932B03E0912A03F0912B03F07836
:1007300059F0E0912A03F0912B03A0E0B5E00E946C
:100740004D39EA1BFB0B06C0E0912A03F0912B0305
:10075000E050FB4FE0932A03F0932B0301C070CFCE
:10076000E0E0E093B1000E9461392B960895249750
:10077000E0E0E883E983EA83EB83E0911D03E03066
:1007800009F442DFE0911D03EF5FE0931D03E17088
:10079000E0931D0343DE42DEE0910E03E03099F466
:1007A000E0E0E0930F03E0931E03E0931F03E09368
:1007B0002003E09321030E9442392898ACEFB3E074
:1007C0000E945237D5C0E0910A03F0910B036627CF
:1007D00077270E94C237DF01CB01E0910C03F09133
:1007E0000D03662777270E94C2370E9447390E946F
:1007F000F5370E943D39A0912403B09125038091E3
:100800002603909127030E944C38A0911E03B091BB
:100810001F0380912003909121030E94FC37E093F5
:100820001E03F0931F036093200370932103E09154
:100830002303FF27662777270E94C237DF01CB01FA
:10084000E0E0F0E068EC72E40E949A38A0E0B0E0EA
:100850008FE794E40E944C38A0911E03B0911F03CF
:1008600080912003909121030E94DF3809F010F459
:100870000C945704E0912303FF27662777270E94F3
:10088000C237DF01CB01E0E0F0E068EC72E40E94E7
:100890009A38A0E0B0E08FE794E40E944C38E093EF
:1008A0001E03F0931F036093200370932103A09114
:1008B0001E03B0911F0380912003909121030E9499
:1008C00054394CF0E0E0E0931E03E0931F03E09303
:1008D0002003E0932103A0911E03B0911F03809198
:1008E0002003909121030E9454390CF4289AE0913E
:1008F0001E03F0911F0360912003709121030E9459
:100900008937DF010E945237E0911E03F0911F03E7
:1009100060912003709121030E948937EC3FA3E08E
:10092000FA0709F02898A0911E03B0911F03809147
:10093000200390912103E0E0F0E06FE774E40E946F
:10094000F5370E948937DF010E945237A0911E03BC
:10095000B0911F038091200390912103E0E0F0E02B
:1009600060E870E40E949A380E948937E0930F0390
:10097000F894E0910A03F0910B03E0931403F093D1
:100980001503E0910F03E0931603E0911303E09346
:100990000E03E0911103F0911203E0930C03F09326
:1009A0000D03E0912A03F0912B03E0931903F093D8
:1009B0001A03E0912803F0912903E0931B03F093BD
:1009C0001C037894DACE24960895E0E8E093610061
:1009D000E0E0E0936100E0930703E0930803E09315
:1009E0000903E4E15E2EEAE24E2ECC24E0E0E0933F
:1009F0000003E0930103E8EEF3E0E0930203F093D9
:100A00000303E0E0E0930403E0930503E09317039E
:100A1000E0931803E0930603E5E1E4B9E4E0E5B907
:100A2000EFEFEAB9EFECEBB9EFE3E7B9E0E0E8B9F3
:100A300074DD0E942B360E948E360895E3E0E5BDFA
:100A40000895C3DFFBDFE0E0F5E0E0930A03F093F5
:100A50000B03E2ECF6E0E0930C03F0930D03E0E00F
:100A6000E0930E03E0930F03E0931003C0DCD6DCA9
:100A7000A0E2B3E00E945237E0910A03F0910B0329
:100A8000E0931403F0931503E0910C03F0910D0330
:100A9000E0931103F0931203E0910E03E09313032C
:100AA000E0910F03E0931603E1E0E0936800E0E2D9
:100AB000E0936B0078945BDEFFCF1A930A93A091CA
:100AC0000E03A13039F4A0911003A13011F4289A3B
:100AD00001C02898A0910403B0910503D897B0F005
:100AE000A0910403B0910503A93EE3E0BE0710F412
:100AF0000E942B36A0910403B0910503D7970E9462
:100B00004B360E9478360E948E360CC00E94783692
:100B10000E948E360E942B36A0910403B0910503EB
:100B20000E944B360E940736E0910003F0910103CA
:100B30003A968F010E94F935F80131978F01D1F76C
:100B40000E9478360E94F9350E947836009102039F
:100B500010910303E4E15E2EE8E2DE2E0E94F935F7
:100B6000E4E15E2EE8E24E2EE4E17E2EE8E26E2E17
:100B7000E4E19E2EE8E28E2EE4E1BE2EE8E2AE2E07
:100B800058B848B878B868B898B888B8B8B8A8B8A5
:100B900058B848B878B868B898B888B8B8B8A8B895
:100BA00058B848B878B868B898B888B8B8B8A8B885
:100BB00058B848B878B868B898B888B8B8B8A8B875
:100BC00058B848B878B868B898B888B8B8B8A8B865
:100BD00058B848B878B868B898B888B8B8B8A8B855
:100BE00058B848B878B868B898B888B8B8B8A8B845
:100BF00058B848B878B868B898B888B8B8B8A8B835
:100C000058B848B878B868B898B888B8B8B8A8B824
:100C100058B848B878B868B898B888B8B8B8A8B814
:100C200058B848B878B868B898B888B8B8B8A8B804
:100C300058B848B878B868B898B888B8B8B8A8B8F4
:100C4000E4E15E2EEAE24E2EE4E17E2EEAE26E2E32
:100C5000E4E19E2EEAE28E2EE4E1BE2EEAE2AE2E22
:100C600058B848B878B868B898B888B8B8B8A8B8C4
:100C7000CC2071F4E4E15E2EEAE24E2EE4E17E2E19
:100C8000EAE26E2EE4E19E2EEAE28E2EE4E10DC051
:100C9000E4E15E2EEAE24E2EEAE17E2EEAE26E2EDC
:100CA000EAE19E2EEAE28E2EEAE1BE2EEAE2AE2EC6
:100CB00058B848B878B868B898B888B8B8B8A8B874
:100CC00058B848B878B868B898B888B8B8B8A8B864
:100CD00058B848B878B868B898B888B8B8B8A8B854
:100CE00058B848B878B868B898B888B8B8B8A8B844
:100CF00058B848B878B868B898B888B8B8B8A8B834
:100D000058B848B878B868B898B888B8B8B8A8B823
:100D100058B848B878B868B898B888B8B8B8A8B813
:100D200058B848B878B868B898B888B8B8B8A8B803
:100D300058B848B878B868B898B888B8B8B8A8B8F3
:100D400058B848B878B868B898B888B8B8B8A8B8E3
:100D500058B848B878B868B898B888B8B8B8A8B8D3
:100D600058B848B878B868B898B888B8B8B8A8B8C3
:100D700058B848B878B868B898B888B8B8B8A8B8B3
:100D800058B848B878B868B898B888B8B8B8A8B8A3
:100D900058B848B878B868B898B888B8B8B8A8B893
:100DA00058B848B878B868B898B888B8B8B8A8B883
:100DB00058B848B878B868B898B888B8B8B8A8B873
:100DC00058B848B878B868B898B888B8B8B8A8B863
:100DD00058B848B878B868B898B888B8B8B8A8B853
:100DE00058B848B878B868B898B888B8B8B8A8B843
:100DF00058B848B878B868B898B888B8B8B8A8B833
:100E000058B848B878B868B898B888B8B8B8A8B822
:100E100058B848B878B868B898B888B8B8B8A8B812
:100E200058B848B878B868B898B888B8B8B8A8B802
:100E300058B848B878B868B898B888B8B8B8A8B8F2
:100E400058B848B878B868B898B888B8B8B8A8B8E2
:100E500058B848B878B868B898B888B8B8B8A8B8D2
:100E600058B848B878B868B898B888B8B8B8A8B8C2
:100E700058B848B878B868B898B888B8B8B8A8B8B2
:100E800058B848B878B868B898B888B8B8B8A8B8A2
:100E900058B848B878B868B898B888B8B8B8A8B892
:100EA00058B848B878B868B898B888B8B8B8A8B882
:100EB00058B848B878B868B898B888B8B8B8A8B872
:100EC00058B848B878B868B898B888B8B8B8A8B862
:100ED00058B848B878B868B898B888B8B8B8A8B852
:100EE00058B848B878B868B898B888B8B8B8A8B842
:100EF00058B848B878B868B898B888B8B8B8A8B832
:100F000058B848B878B868B898B888B8B8B8A8B821
:100F100058B848B878B868B898B888B8B8B8A8B811
:100F200058B848B878B868B898B888B8B8B8A8B801
:100F300058B848B878B868B898B888B8B8B8A8B8F1
:100F400058B848B878B868B898B888B8B8B8A8B8E1
:100F500058B848B878B868B898B888B8B8B8A8B8D1
:100F600058B848B878B868B898B888B8B8B8A8B8C1
:100F700058B848B878B868B898B888B8B8B8A8B8B1
:100F800058B848B878B868B898B888B8B8B8A8B8A1
:100F900058B848B878B868B898B888B8B8B8A8B891
:100FA00058B848B878B868B898B888B8B8B8A8B881
:100FB00058B848B878B868B898B888B8B8B8A8B871
:100FC00058B848B878B868B898B888B8B8B8A8B861
:100FD00058B848B878B868B898B888B8B8B8A8B851
:100FE00058B848B878B868B898B888B8B8B8A8B841
:100FF00058B848B878B868B898B888B8B8B8A8B831
:1010000058B848B878B868B898B888B8B8B8A8B820
:1010100058B848B878B868B898B888B8B8B8A8B810
:1010200058B848B878B868B898B888B8B8B8A8B800
:1010300058B848B878B868B898B888B8B8B8A8B8F0
:1010400058B848B878B868B898B888B8B8B8A8B8E0
:1010500058B848B878B868B898B888B8B8B8A8B8D0
:1010600058B848B878B868B898B888B8B8B8A8B8C0
:1010700058B848B878B868B898B888B8B8B8A8B8B0
:1010800058B848B878B868B898B888B8B8B8A8B8A0
:1010900058B848B878B868B898B888B8B8B8A8B890
:1010A00058B848B878B868B898B888B8B8B8A8B880
:1010B00058B848B878B868B898B888B8B8B8A8B870
:1010C00058B848B878B868B898B888B8B8B8A8B860
:1010D00058B848B878B868B898B888B8B8B8A8B850
:1010E00058B848B878B868B898B888B8B8B8A8B840
:1010F00058B848B878B868B898B888B8B8B8A8B830
:1011000058B848B878B868B898B888B8B8B8A8B81F
:1011100058B848B878B868B898B888B8B8B8A8B80F
:1011200058B848B878B868B898B888B8B8B8A8B8FF
:1011300058B848B878B868B898B888B8B8B8A8B8EF
:1011400058B848B878B868B898B888B8B8B8A8B8DF
:1011500058B848B878B868B898B888B8B8B8A8B8CF
:1011600058B848B878B868B898B888B8B8B8A8B8BF
:1011700058B848B878B868B898B888B8B8B8A8B8AF
:1011800058B848B878B868B898B888B8B8B8A8B89F
:1011900058B848B878B868B898B888B8B8B8A8B88F
:1011A00058B848B878B868B898B888B8B8B8A8B87F
:1011B00058B848B878B868B898B888B8B8B8A8B86F
:1011C00058B848B878B868B898B888B8B8B8A8B85F
:1011D00058B848B878B868B898B888B8B8B8A8B84F
:1011E00058B848B878B868B898B888B8B8B8A8B83F
:1011F00058B848B878B868B898B888B8B8B8A8B82F
:1012000058B848B878B868B898B888B8B8B8A8B81E
:1012100058B848B878B868B898B888B8B8B8A8B80E
:1012200058B848B878B868B898B888B8B8B8A8B8FE
:1012300058B848B878B868B898B888B8B8B8A8B8EE
:1012400058B848B878B868B898B888B8B8B8A8B8DE
:1012500058B848B878B868B898B888B8B8B8A8B8CE
:1012600058B848B878B868B898B888B8B8B8A8B8BE
:1012700058B848B878B868B898B888B8B8B8A8B8AE
:1012800058B848B878B868B898B888B8B8B8A8B89E
:1012900058B848B878B868B898B888B8B8B8A8B88E
:1012A00058B848B878B868B898B888B8B8B8A8B87E
:1012B00058B848B878B868B898B888B8B8B8A8B86E
:1012C00058B848B878B868B898B888B8B8B8A8B85E
:1012D00058B848B878B868B898B888B8B8B8A8B84E
:1012E00058B848B878B868B898B888B8B8B8A8B83E
:1012F00058B848B878B868B898B888B8B8B8A8B82E
:1013000058B848B878B868B898B888B8B8B8A8B81D
:1013100058B848B878B868B898B888B8B8B8A8B80D
:1013200058B848B878B868B898B888B8B8B8A8B8FD
:1013300058B848B878B868B898B888B8B8B8A8B8ED
:1013400058B848B878B868B898B888B8B8B8A8B8DD
:1013500058B848B878B868B898B888B8B8B8A8B8CD
:1013600058B848B878B868B898B888B8B8B8A8B8BD
:1013700058B848B878B868B898B888B8B8B8A8B8AD
:1013800058B848B878B868B898B888B8B8B8A8B89D
:1013900058B848B878B868B898B888B8B8B8A8B88D
:1013A00058B848B878B868B898B888B8B8B8A8B87D
:1013B00058B848B878B868B898B888B8B8B8A8B86D
:1013C00058B848B878B868B898B888B8B8B8A8B85D
:1013D00058B848B878B868B898B888B8B8B8A8B84D
:1013E00058B848B878B868B898B888B8B8B8A8B83D
:1013F00058B848B878B868B898B888B8B8B8A8B82D
:1014000058B848B878B868B898B888B8B8B8A8B81C
:1014100058B848B878B868B898B888B8B8B8A8B80C
:1014200058B848B878B868B898B888B8B8B8A8B8FC
:1014300058B848B878B868B898B888B8B8B8A8B8EC
:1014400058B848B878B868B898B888B8B8B8A8B8DC
:1014500058B848B878B868B898B888B8B8B8A8B8CC
:1014600058B848B878B868B898B888B8B8B8A8B8BC
:1014700058B848B878B868B898B888B8B8B8A8B8AC
:1014800058B848B878B868B898B888B8B8B8A8B89C
:1014900058B848B878B868B898B888B8B8B8A8B88C
:1014A00058B848B878B868B898B888B8B8B8A8B87C
:1014B00058B848B878B868B898B888B8B8B8A8B86C
:1014C00058B848B878B868B898B888B8B8B8A8B85C
:1014D00058B848B878B868B898B888B8B8B8A8B84C
:1014E00058B848B878B868B898B888B8B8B8A8B83C
:1014F00058B848B878B868B898B888B8B8B8A8B82C
:1015000058B848B878B868B898B888B8B8B8A8B81B
:1015100058B848B878B868B898B888B8B8B8A8B80B
:1015200058B848B878B868B898B888B8B8B8A8B8FB
:1015300058B848B878B868B898B888B8B8B8A8B8EB
:1015400058B848B878B868B898B888B8B8B8A8B8DB
:1015500058B848B878B868B898B888B8B8B8A8B8CB
:1015600058B848B878B868B898B888B8B8B8A8B8BB
:1015700058B848B878B868B898B888B8B8B8A8B8AB
:1015800058B848B878B868B898B888B8B8B8A8B89B
:1015900058B848B878B868B898B888B8B8B8A8B88B
:1015A00058B848B878B868B898B888B8B8B8A8B87B
:1015B00058B848B878B868B898B888B8B8B8A8B86B
:1015C00058B848B878B868B898B888B8B8B8A8B85B
:1015D00058B848B878B868B898B888B8B8B8A8B84B
:1015E00058B848B878B868B898B888B8B8B8A8B83B
:1015F00058B848B878B868B898B888B8B8B8A8B82B
:1016000058B848B878B868B898B888B8B8B8A8B81A
:1016100058B848B878B868B898B888B8B8B8A8B80A
:1016200058B848B878B868B898B888B8B8B8A8B8FA
:1016300058B848B878B868B898B888B8B8B8A8B8EA
:1016400058B848B878B868B898B888B8B8B8A8B8DA
:1016500058B848B878B868B898B888B8B8B8A8B8CA
:1016600058B848B878B868B898B888B8B8B8A8B8BA
:1016700058B848B878B868B898B888B8B8B8A8B8AA
:1016800058B848B878B868B898B888B8B8B8A8B89A
:1016900058B848B878B868B898B888B8B8B8A8B88A
:1016A00058B848B878B868B898B888B8B8B8A8B87A
:1016B00058B848B878B868B898B888B8B8B8A8B86A
:1016C00058B848B878B868B898B888B8B8B8A8B85A
:1016D00058B848B878B868B898B888B8B8B8A8B84A
:1016E00058B848B878B868B898B888B8B8B8A8B83A
:1016F00058B848B878B868B898B888B8B8B8A8B82A
:1017000058B848B878B868B898B888B8B8B8A8B819
:1017100058B848B878B868B898B888B8B8B8A8B809
:1017200058B848B878B868B898B888B8B8B8A8B8F9
:1017300058B848B878B868B898B888B8B8B8A8B8E9
:1017400058B848B878B868B898B888B8B8B8A8B8D9
:1017500058B848B878B868B898B888B8B8B8A8B8C9
:1017600058B848B878B868B898B888B8B8B8A8B8B9
:1017700058B848B878B868B898B888B8B8B8A8B8A9
:1017800058B848B878B868B898B888B8B8B8A8B899
:1017900058B848B878B868B898B888B8B8B8A8B889
:1017A00058B848B878B868B898B888B8B8B8A8B879
:1017B00058B848B878B868B898B888B8B8B8A8B869
:1017C00058B848B878B868B898B888B8B8B8A8B859
:1017D00058B848B878B868B898B888B8B8B8A8B849
:1017E00058B848B878B868B898B888B8B8B8A8B839
:1017F00058B848B878B868B898B888B8B8B8A8B829
:1018000058B848B878B868B898B888B8B8B8A8B818
:1018100058B848B878B868B898B888B8B8B8A8B808
:1018200058B848B878B868B898B888B8B8B8A8B8F8
:1018300058B848B878B868B898B888B8B8B8A8B8E8
:1018400058B848B878B868B898B888B8B8B8A8B8D8
:1018500058B848B878B868B898B888B8B8B8A8B8C8
:1018600058B848B878B868B898B888B8B8B8A8B8B8
:1018700058B848B878B868B898B888B8B8B8A8B8A8
:1018800058B848B878B868B898B888B8B8B8A8B898
:1018900058B848B878B868B898B888B8B8B8A8B888
:1018A00058B848B878B868B898B888B8B8B8A8B878
:1018B00058B848B878B868B898B888B8B8B8A8B868
:1018C00058B848B878B868B898B888B8B8B8A8B858
:1018D00058B848B878B868B898B888B8B8B8A8B848
:1018E00058B848B878B868B898B888B8B8B8A8B838
:1018F00058B848B878B868B898B888B8B8B8A8B828
:1019000058B848B878B868B898B888B8B8B8A8B817
:1019100058B848B878B868B898B888B8B8B8A8B807
:1019200058B848B878B868B898B888B8B8B8A8B8F7
:1019300058B848B878B868B898B888B8B8B8A8B8E7
:1019400058B848B878B868B898B888B8B8B8A8B8D7
:1019500058B848B878B868B898B888B8B8B8A8B8C7
:1019600058B848B878B868B898B888B8B8B8A8B8B7
:1019700058B848B878B868B898B888B8B8B8A8B8A7
:1019800058B848B878B868B898B888B8B8B8A8B897
:1019900058B848B878B868B898B888B8B8B8A8B887
:1019A00058B848B878B868B898B888B8B8B8A8B877
:1019B00058B848B878B868B898B888B8B8B8A8B867
:1019C00058B848B878B868B898B888B8B8B8A8B857
:1019D00058B848B878B868B898B888B8B8B8A8B847
:1019E00058B848B878B868B898B888B8B8B8A8B837
:1019F00058B848B878B868B898B888B8B8B8A8B827
:101A000058B848B878B868B898B888B8B8B8A8B816
:101A100058B848B878B868B898B888B8B8B8A8B806
:101A200058B848B878B868B898B888B8B8B8A8B8F6
:101A300058B848B878B868B898B888B8B8B8A8B8E6
:101A400058B848B878B868B898B888B8B8B8A8B8D6
:101A500058B848B878B868B898B888B8B8B8A8B8C6
:101A600058B848B878B868B898B888B8B8B8A8B8B6
:101A700058B848B878B868B898B888B8B8B8A8B8A6
:101A800058B848B878B868B898B888B8B8B8A8B896
:101A900058B848B878B868B898B888B8B8B8A8B886
:101AA00058B848B878B868B898B888B8B8B8A8B876
:101AB00058B848B878B868B898B888B8B8B8A8B866
:101AC00058B848B878B868B898B888B8B8B8A8B856
:101AD00058B848B878B868B898B888B8B8B8A8B846
:101AE00058B848B878B868B898B888B8B8B8A8B836
:101AF00058B848B878B868B898B888B8B8B8A8B826
:101B000058B848B878B868B898B888B8B8B8A8B815
:101B100058B848B878B868B898B888B8B8B8A8B805
:101B200058B848B878B868B898B888B8B8B8A8B8F5
:101B300058B848B878B868B898B888B8B8B8A8B8E5
:101B400058B848B878B868B898B888B8B8B8A8B8D5
:101B500058B848B878B868B898B888B8B8B8A8B8C5
:101B600058B848B878B868B898B888B8B8B8A8B8B5
:101B700058B848B878B868B898B888B8B8B8A8B8A5
:101B800058B848B878B868B898B888B8B8B8A8B895
:101B900058B848B878B868B898B888B8B8B8A8B885
:101BA00058B848B878B868B898B888B8B8B8A8B875
:101BB00058B848B878B868B898B888B8B8B8A8B865
:101BC00058B848B878B868B898B888B8B8B8A8B855
:101BD00058B848B878B868B898B888B8B8B8A8B845
:101BE00058B848B878B868B898B888B8B8B8A8B835
:101BF00058B848B878B868B898B888B8B8B8A8B825
:101C000058B848B878B868B898B888B8B8B8A8B814
:101C100058B848B878B868B898B888B8B8B8A8B804
:101C200058B848B878B868B898B888B8B8B8A8B8F4
:101C300058B848B878B868B898B888B8B8B8A8B8E4
:101C400058B848B878B868B898B888B8B8B8A8B8D4
:101C500058B848B878B868B898B888B8B8B8A8B8C4
:101C600058B848B878B868B898B888B8B8B8A8B8B4
:101C700058B848B878B868B898B888B8B8B8A8B8A4
:101C800058B848B878B868B898B888B8B8B8A8B894
:101C900058B848B878B868B898B888B8B8B8A8B884
:101CA00058B848B878B868B898B888B8B8B8A8B874
:101CB00058B848B878B868B898B888B8B8B8A8B864
:101CC00058B848B878B868B898B888B8B8B8A8B854
:101CD00058B848B878B868B898B888B8B8B8A8B844
:101CE00058B848B878B868B898B888B8B8B8A8B834
:101CF00058B848B878B868B898B888B8B8B8A8B824
:101D000058B848B878B868B898B888B8B8B8A8B813
:101D100058B848B878B868B898B888B8B8B8A8B803
:101D200058B848B878B868B898B888B8B8B8A8B8F3
:101D300058B848B878B868B898B888B8B8B8A8B8E3
:101D400058B848B878B868B898B888B8B8B8A8B8D3
:101D500058B848B878B868B898B888B8B8B8A8B8C3
:101D600058B848B878B868B898B888B8B8B8A8B8B3
:101D700058B848B878B868B898B888B8B8B8A8B8A3
:101D800058B848B878B868B898B888B8B8B8A8B893
:101D900058B848B878B868B898B888B8B8B8A8B883
:101DA00058B848B878B868B898B888B8B8B8A8B873
:101DB00058B848B878B868B898B888B8B8B8A8B863
:101DC00058B848B878B868B898B888B8B8B8A8B853
:101DD00058B848B878B868B898B888B8B8B8A8B843
:101DE00058B848B878B868B898B888B8B8B8A8B833
:101DF00058B848B878B868B898B888B8B8B8A8B823
:101E000058B848B878B868B898B888B8B8B8A8B812
:101E100058B848B878B868B898B888B8B8B8A8B802
:101E200058B848B878B868B898B888B8B8B8A8B8F2
:101E300058B848B878B868B898B888B8B8B8A8B8E2
:101E400058B848B878B868B898B888B8B8B8A8B8D2
:101E500058B848B878B868B898B888B8B8B8A8B8C2
:101E600058B848B878B868B898B888B8B8B8A8B8B2
:101E700058B848B878B868B898B888B8B8B8A8B8A2
:101E800058B848B878B868B898B888B8B8B8A8B892
:101E900058B848B878B868B898B888B8B8B8A8B882
:101EA00058B848B878B868B898B888B8B8B8A8B872
:101EB00058B848B878B868B898B888B8B8B8A8B862
:101EC00058B848B878B868B898B888B8B8B8A8B852
:101ED00058B848B878B868B898B888B8B8B8A8B842
:101EE00058B848B878B868B898B888B8B8B8A8B832
:101EF00058B848B878B868B898B888B8B8B8A8B822
:101F000058B848B878B868B898B888B8B8B8A8B811
:101F100058B848B878B868B898B888B8B8B8A8B801
:101F200058B848B878B868B898B888B8B8B8A8B8F1
:101F300058B848B878B868B898B888B8B8B8A8B8E1
:101F400058B848B878B868B898B888B8B8B8A8B8D1
:101F500058B848B878B868B898B888B8B8B8A8B8C1
:101F600058B848B878B868B898B888B8B8B8A8B8B1
:101F700058B848B878B868B898B888B8B8B8A8B8A1
:101F800058B848B878B868B898B888B8B8B8A8B891
:101F900058B848B878B868B898B888B8B8B8A8B881
:101FA00058B848B878B868B898B888B8B8B8A8B871
:101FB00058B848B878B868B898B888B8B8B8A8B861
:101FC00058B848B878B868B898B888B8B8B8A8B851
:101FD00058B848B878B868B898B888B8B8B8A8B841
:101FE00058B848B878B868B898B888B8B8B8A8B831
:101FF00058B848B878B868B898B888B8B8B8A8B821
:1020000058B848B878B868B898B888B8B8B8A8B810
:1020100058B848B878B868B898B888B8B8B8A8B800
:1020200058B848B878B868B898B888B8B8B8A8B8F0
:1020300058B848B878B868B898B888B8B8B8A8B8E0
:1020400058B848B878B868B898B888B8B8B8A8B8D0
:1020500058B848B878B868B898B888B8B8B8A8B8C0
:1020600058B848B878B868B898B888B8B8B8A8B8B0
:1020700058B848B878B868B898B888B8B8B8A8B8A0
:1020800058B848B878B868B898B888B8B8B8A8B890
:1020900058B848B878B868B898B888B8B8B8A8B880
:1020A00058B848B878B868B898B888B8B8B8A8B870
:1020B00058B848B878B868B898B888B8B8B8A8B860
:1020C00058B848B878B868B898B888B8B8B8A8B850
:1020D00058B848B878B868B898B888B8B8B8A8B840
:1020E00058B848B878B868B898B888B8B8B8A8B830
:1020F00058B848B878B868B898B888B8B8B8A8B820
:1021000058B848B878B868B898B888B8B8B8A8B80F
:1021100058B848B878B868B898B888B8B8B8A8B8FF
:1021200058B848B878B868B898B888B8B8B8A8B8EF
:1021300058B848B878B868B898B888B8B8B8A8B8DF
:1021400058B848B878B868B898B888B8B8B8A8B8CF
:1021500058B848B878B868B898B888B8B8B8A8B8BF
:1021600058B848B878B868B898B888B8B8B8A8B8AF
:1021700058B848B878B868B898B888B8B8B8A8B89F
:1021800058B848B878B868B898B888B8B8B8A8B88F
:1021900058B848B878B868B898B888B8B8B8A8B87F
:1021A00058B848B878B868B898B888B8B8B8A8B86F
:1021B00058B848B878B868B898B888B8B8B8A8B85F
:1021C00058B848B878B868B898B888B8B8B8A8B84F
:1021D00058B848B878B868B898B888B8B8B8A8B83F
:1021E00058B848B878B868B898B888B8B8B8A8B82F
:1021F00058B848B878B868B898B888B8B8B8A8B81F
:1022000058B848B878B868B898B888B8B8B8A8B80E
:1022100058B848B878B868B898B888B8B8B8A8B8FE
:1022200058B848B878B868B898B888B8B8B8A8B8EE
:1022300058B848B878B868B898B888B8B8B8A8B8DE
:1022400058B848B878B868B898B888B8B8B8A8B8CE
:1022500058B848B878B868B898B888B8B8B8A8B8BE
:1022600058B848B878B868B898B888B8B8B8A8B8AE
:1022700058B848B878B868B898B888B8B8B8A8B89E
:1022800058B848B878B868B898B888B8B8B8A8B88E
:1022900058B848B878B868B898B888B8B8B8A8B87E
:1022A00058B848B878B868B898B888B8B8B8A8B86E
:1022B00058B848B878B868B898B888B8B8B8A8B85E
:1022C00058B848B878B868B898B888B8B8B8A8B84E
:1022D00058B848B878B868B898B888B8B8B8A8B83E
:1022E00058B848B878B868B898B888B8B8B8A8B82E
:1022F00058B848B878B868B898B888B8B8B8A8B81E
:1023000058B848B878B868B898B888B8B8B8A8B80D
:1023100058B848B878B868B898B888B8B8B8A8B8FD
:1023200058B848B878B868B898B888B8B8B8A8B8ED
:1023300058B848B878B868B898B888B8B8B8A8B8DD
:1023400058B848B878B868B898B888B8B8B8A8B8CD
:1023500058B848B878B868B898B888B8B8B8A8B8BD
:1023600058B848B878B868B898B888B8B8B8A8B8AD
:1023700058B848B878B868B898B888B8B8B8A8B89D
:1023800058B848B878B868B898B888B8B8B8A8B88D
:1023900058B848B878B868B898B888B8B8B8A8B87D
:1023A00058B848B878B868B898B888B8B8B8A8B86D
:1023B00058B848B878B868B898B888B8B8B8A8B85D
:1023C00058B848B878B868B898B888B8B8B8A8B84D
:1023D00058B848B878B868B898B888B8B8B8A8B83D
:1023E00058B848B878B868B898B888B8B8B8A8B82D
:1023F00058B848B878B868B898B888B8B8B8A8B81D
:1024000058B848B878B868B898B888B8B8B8A8B80C
:1024100058B848B878B868B898B888B8B8B8A8B8FC
:1024200058B848B878B868B898B888B8B8B8A8B8EC
:1024300058B848B878B868B898B888B8B8B8A8B8DC
:1024400058B848B878B868B898B888B8B8B8A8B8CC
:1024500058B848B878B868B898B888B8B8B8A8B8BC
:1024600058B848B878B868B898B888B8B8B8A8B8AC
:1024700058B848B878B868B898B888B8B8B8A8B89C
:1024800058B848B878B868B898B888B8B8B8A8B88C
:1024900058B848B878B868B898B888B8B8B8A8B87C
:1024A00058B848B878B868B898B888B8B8B8A8B86C
:1024B00058B848B878B868B898B888B8B8B8A8B85C
:1024C00058B848B878B868B898B888B8B8B8A8B84C
:1024D00058B848B878B868B898B888B8B8B8A8B83C
:1024E00058B848B878B868B898B888B8B8B8A8B82C
:1024F00058B848B878B868B898B888B8B8B8A8B81C
:1025000058B848B878B868B898B888B8B8B8A8B80B
:1025100058B848B878B868B898B888B8B8B8A8B8FB
:1025200058B848B878B868B898B888B8B8B8A8B8EB
:1025300058B848B878B868B898B888B8B8B8A8B8DB
:1025400058B848B878B868B898B888B8B8B8A8B8CB
:1025500058B848B878B868B898B888B8B8B8A8B8BB
:1025600058B848B878B868B898B888B8B8B8A8B8AB
:1025700058B848B878B868B898B888B8B8B8A8B89B
:1025800058B848B878B868B898B888B8B8B8A8B88B
:1025900058B848B878B868B898B888B8B8B8A8B87B
:1025A00058B848B878B868B898B888B8B8B8A8B86B
:1025B00058B848B878B868B898B888B8B8B8A8B85B
:1025C00058B848B878B868B898B888B8B8B8A8B84B
:1025D00058B848B878B868B898B888B8B8B8A8B83B
:1025E00058B848B878B868B898B888B8B8B8A8B82B
:1025F00058B848B878B868B898B888B8B8B8A8B81B
:1026000058B848B878B868B898B888B8B8B8A8B80A
:1026100058B848B878B868B898B888B8B8B8A8B8FA
:1026200058B848B878B868B898B888B8B8B8A8B8EA
:1026300058B848B878B868B898B888B8B8B8A8B8DA
:1026400058B848B878B868B898B888B8B8B8A8B8CA
:1026500058B848B878B868B898B888B8B8B8A8B8BA
:1026600058B848B878B868B898B888B8B8B8A8B8AA
:1026700058B848B878B868B898B888B8B8B8A8B89A
:1026800058B848B878B868B898B888B8B8B8A8B88A
:1026900058B848B878B868B898B888B8B8B8A8B87A
:1026A00058B848B878B868B898B888B8B8B8A8B86A
:1026B00058B848B878B868B898B888B8B8B8A8B85A
:1026C00058B848B878B868B898B888B8B8B8A8B84A
:1026D00058B848B878B868B898B888B8B8B8A8B83A
:1026E00058B848B878B868B898B888B8B8B8A8B82A
:1026F00058B848B878B868B898B888B8B8B8A8B81A
:1027000058B848B878B868B898B888B8B8B8A8B809
:1027100058B848B878B868B898B888B8B8B8A8B8F9
:1027200058B848B878B868B898B888B8B8B8A8B8E9
:1027300058B848B878B868B898B888B8B8B8A8B8D9
:1027400058B848B878B868B898B888B8B8B8A8B8C9
:1027500058B848B878B868B898B888B8B8B8A8B8B9
:1027600058B848B878B868B898B888B8B8B8A8B8A9
:1027700058B848B878B868B898B888B8B8B8A8B899
:1027800058B848B878B868B898B888B8B8B8A8B889
:1027900058B848B878B868B898B888B8B8B8A8B879
:1027A00058B848B878B868B898B888B8B8B8A8B869
:1027B00058B848B878B868B898B888B8B8B8A8B859
:1027C00058B848B878B868B898B888B8B8B8A8B849
:1027D00058B848B878B868B898B888B8B8B8A8B839
:1027E00058B848B878B868B898B888B8B8B8A8B829
:1027F00058B848B878B868B898B888B8B8B8A8B819
:1028000058B848B878B868B898B888B8B8B8A8B808
:1028100058B848B878B868B898B888B8B8B8A8B8F8
:1028200058B848B878B868B898B888B8B8B8A8B8E8
:1028300058B848B878B868B898B888B8B8B8A8B8D8
:1028400058B848B878B868B898B888B8B8B8A8B8C8
:1028500058B848B878B868B898B888B8B8B8A8B8B8
:1028600058B848B878B868B898B888B8B8B8A8B8A8
:1028700058B848B878B868B898B888B8B8B8A8B898
:1028800058B848B878B868B898B888B8B8B8A8B888
:1028900058B848B878B868B898B888B8B8B8A8B878
:1028A00058B848B878B868B898B888B8B8B8A8B868
:1028B00058B848B878B868B898B888B8B8B8A8B858
:1028C00058B848B878B868B898B888B8B8B8A8B848
:1028D00058B848B878B868B898B888B8B8B8A8B838
:1028E00058B848B878B868B898B888B8B8B8A8B828
:1028F00058B848B878B868B898B888B8B8B8A8B818
:1029000058B848B878B868B898B888B8B8B8A8B807
:1029100058B848B878B868B898B888B8B8B8A8B8F7
:1029200058B848B878B868B898B888B8B8B8A8B8E7
:1029300058B848B878B868B898B888B8B8B8A8B8D7
:1029400058B848B878B868B898B888B8B8B8A8B8C7
:1029500058B848B878B868B898B888B8B8B8A8B8B7
:1029600058B848B878B868B898B888B8B8B8A8B8A7
:1029700058B848B878B868B898B888B8B8B8A8B897
:1029800058B848B878B868B898B888B8B8B8A8B887
:1029900058B848B878B868B898B888B8B8B8A8B877
:1029A00058B848B878B868B898B888B8B8B8A8B867
:1029B00058B848B878B868B898B888B8B8B8A8B857
:1029C00058B848B878B868B898B888B8B8B8A8B847
:1029D00058B848B878B868B898B888B8B8B8A8B837
:1029E00058B848B878B868B898B888B8B8B8A8B827
:1029F00058B848B878B868B898B888B8B8B8A8B817
:102A000058B848B878B868B898B888B8B8B8A8B806
:102A100058B848B878B868B898B888B8B8B8A8B8F6
:102A200058B848B878B868B898B888B8B8B8A8B8E6
:102A300058B848B878B868B898B888B8B8B8A8B8D6
:102A400058B848B878B868B898B888B8B8B8A8B8C6
:102A500058B848B878B868B898B888B8B8B8A8B8B6
:102A600058B848B878B868B898B888B8B8B8A8B8A6
:102A700058B848B878B868B898B888B8B8B8A8B896
:102A800058B848B878B868B898B888B8B8B8A8B886
:102A900058B848B878B868B898B888B8B8B8A8B876
:102AA00058B848B878B868B898B888B8B8B8A8B866
:102AB00058B848B878B868B898B888B8B8B8A8B856
:102AC00058B848B878B868B898B888B8B8B8A8B846
:102AD00058B848B878B868B898B888B8B8B8A8B836
:102AE00058B848B878B868B898B888B8B8B8A8B826
:102AF00058B848B878B868B898B888B8B8B8A8B816
:102B000058B848B878B868B898B888B8B8B8A8B805
:102B100058B848B878B868B898B888B8B8B8A8B8F5
:102B200058B848B878B868B898B888B8B8B8A8B8E5
:102B300058B848B878B868B898B888B8B8B8A8B8D5
:102B400058B848B878B868B898B888B8B8B8A8B8C5
:102B500058B848B878B868B898B888B8B8B8A8B8B5
:102B600058B848B878B868B898B888B8B8B8A8B8A5
:102B700058B848B878B868B898B888B8B8B8A8B895
:102B800058B848B878B868B898B888B8B8B8A8B885
:102B900058B848B878B868B898B888B8B8B8A8B875
:102BA00058B848B878B868B898B888B8B8B8A8B865
:102BB00058B848B878B868B898B888B8B8B8A8B855
:102BC00058B848B878B868B898B888B8B8B8A8B845
:102BD00058B848B878B868B898B888B8B8B8A8B835
:102BE00058B848B878B868B898B888B8B8B8A8B825
:102BF00058B848B878B868B898B888B8B8B8A8B815
:102C000058B848B878B868B898B888B8B8B8A8B804
:102C100058B848B878B868B898B888B8B8B8A8B8F4
:102C200058B848B878B868B898B888B8B8B8A8B8E4
:102C300058B848B878B868B898B888B8B8B8A8B8D4
:102C400058B848B878B868B898B888B8B8B8A8B8C4
:102C500058B848B878B868B898B888B8B8B8A8B8B4
:102C600058B848B878B868B898B888B8B8B8A8B8A4
:102C700058B848B878B868B898B888B8B8B8A8B894
:102C800058B848B878B868B898B888B8B8B8A8B884
:102C900058B848B878B868B898B888B8B8B8A8B874
:102CA00058B848B878B868B898B888B8B8B8A8B864
:102CB00058B848B878B868B898B888B8B8B8A8B854
:102CC00058B848B878B868B898B888B8B8B8A8B844
:102CD00058B848B878B868B898B888B8B8B8A8B834
:102CE00058B848B878B868B898B888B8B8B8A8B824
:102CF00058B848B878B868B898B888B8B8B8A8B814
:102D000058B848B878B868B898B888B8B8B8A8B803
:102D100058B848B878B868B898B888B8B8B8A8B8F3
:102D200058B848B878B868B898B888B8B8B8A8B8E3
:102D300058B848B878B868B898B888B8B8B8A8B8D3
:102D400058B848B878B868B898B888B8B8B8A8B8C3
:102D500058B848B878B868B898B888B8B8B8A8B8B3
:102D600058B848B878B868B898B888B8B8B8A8B8A3
:102D700058B848B878B868B898B888B8B8B8A8B893
:102D800058B848B878B868B898B888B8B8B8A8B883
:102D900058B848B878B868B898B888B8B8B8A8B873
:102DA00058B848B878B868B898B888B8B8B8A8B863
:102DB00058B848B878B868B898B888B8B8B8A8B853
:102DC00058B848B878B868B898B888B8B8B8A8B843
:102DD00058B848B878B868B898B888B8B8B8A8B833
:102DE00058B848B878B868B898B888B8B8B8A8B823
:102DF00058B848B878B868B898B888B8B8B8A8B813
:102E000058B848B878B868B898B888B8B8B8A8B802
:102E100058B848B878B868B898B888B8B8B8A8B8F2
:102E200058B848B878B868B898B888B8B8B8A8B8E2
:102E300058B848B878B868B898B888B8B8B8A8B8D2
:102E400058B848B878B868B898B888B8B8B8A8B8C2
:102E500058B848B878B868B898B888B8B8B8A8B8B2
:102E600058B848B878B868B898B888B8B8B8A8B8A2
:102E700058B848B878B868B898B888B8B8B8A8B892
:102E800058B848B878B868B898B888B8B8B8A8B882
:102E900058B848B878B868B898B888B8B8B8A8B872
:102EA00058B848B878B868B898B888B8B8B8A8B862
:102EB00058B848B878B868B898B888B8B8B8A8B852
:102EC00058B848B878B868B898B888B8B8B8A8B842
:102ED00058B848B878B868B898B888B8B8B8A8B832
:102EE00058B848B878B868B898B888B8B8B8A8B822
:102EF00058B848B878B868B898B888B8B8B8A8B812
:102F000058B848B878B868B898B888B8B8B8A8B801
:102F100058B848B878B868B898B888B8B8B8A8B8F1
:102F200058B848B878B868B898B888B8B8B8A8B8E1
:102F300058B848B878B868B898B888B8B8B8A8B8D1
:102F400058B848B878B868B898B888B8B8B8A8B8C1
:102F500058B848B878B868B898B888B8B8B8A8B8B1
:102F600058B848B878B868B898B888B8B8B8A8B8A1
:102F700058B848B878B868B898B888B8B8B8A8B891
:102F800058B848B878B868B898B888B8B8B8A8B881
:102F900058B848B878B868B898B888B8B8B8A8B871
:102FA00058B848B878B868B898B888B8B8B8A8B861
:102FB00058B848B878B868B898B888B8B8B8A8B851
:102FC00058B848B878B868B898B888B8B8B8A8B841
:102FD00058B848B878B868B898B888B8B8B8A8B831
:102FE00058B848B878B868B898B888B8B8B8A8B821
:102FF00058B848B878B868B898B888B8B8B8A8B811
:1030000058B848B878B868B898B888B8B8B8A8B800
:1030100058B848B878B868B898B888B8B8B8A8B8F0
:1030200058B848B878B868B898B888B8B8B8A8B8E0
:1030300058B848B878B868B898B888B8B8B8A8B8D0
:1030400058B848B878B868B898B888B8B8B8A8B8C0
:1030500058B848B878B868B898B888B8B8B8A8B8B0
:1030600058B848B878B868B898B888B8B8B8A8B8A0
:1030700058B848B878B868B898B888B8B8B8A8B890
:1030800058B848B878B868B898B888B8B8B8A8B880
:1030900058B848B878B868B898B888B8B8B8A8B870
:1030A00058B848B878B868B898B888B8B8B8A8B860
:1030B00058B848B878B868B898B888B8B8B8A8B850
:1030C00058B848B878B868B898B888B8B8B8A8B840
:1030D00058B848B878B868B898B888B8B8B8A8B830
:1030E00058B848B878B868B898B888B8B8B8A8B820
:1030F00058B848B878B868B898B888B8B8B8A8B810
:1031000058B848B878B868B898B888B8B8B8A8B8FF
:1031100058B848B878B868B898B888B8B8B8A8B8EF
:1031200058B848B878B868B898B888B8B8B8A8B8DF
:1031300058B848B878B868B898B888B8B8B8A8B8CF
:1031400058B848B878B868B898B888B8B8B8A8B8BF
:1031500058B848B878B868B898B888B8B8B8A8B8AF
:1031600058B848B878B868B898B888B8B8B8A8B89F
:1031700058B848B878B868B898B888B8B8B8A8B88F
:1031800058B848B878B868B898B888B8B8B8A8B87F
:1031900058B848B878B868B898B888B8B8B8A8B86F
:1031A00058B848B878B868B898B888B8B8B8A8B85F
:1031B00058B848B878B868B898B888B8B8B8A8B84F
:1031C00058B848B878B868B898B888B8B8B8A8B83F
:1031D00058B848B878B868B898B888B8B8B8A8B82F
:1031E00058B848B878B868B898B888B8B8B8A8B81F
:1031F00058B848B878B868B898B888B8B8B8A8B80F
:1032000058B848B878B868B898B888B8B8B8A8B8FE
:1032100058B848B878B868B898B888B8B8B8A8B8EE
:1032200058B848B878B868B898B888B8B8B8A8B8DE
:1032300058B848B878B868B898B888B8B8B8A8B8CE
:1032400058B848B878B868B898B888B8B8B8A8B8BE
:1032500058B848B878B868B898B888B8B8B8A8B8AE
:1032600058B848B878B868B898B888B8B8B8A8B89E
:1032700058B848B878B868B898B888B8B8B8A8B88E
:1032800058B848B878B868B898B888B8B8B8A8B87E
:1032900058B848B878B868B898B888B8B8B8A8B86E
:1032A00058B848B878B868B898B888B8B8B8A8B85E
:1032B00058B848B878B868B898B888B8B8B8A8B84E
:1032C00058B848B878B868B898B888B8B8B8A8B83E
:1032D00058B848B878B868B898B888B8B8B8A8B82E
:1032E00058B848B878B868B898B888B8B8B8A8B81E
:1032F00058B848B878B868B898B888B8B8B8A8B80E
:1033000058B848B878B868B898B888B8B8B8A8B8FD
:1033100058B848B878B868B898B888B8B8B8A8B8ED
:1033200058B848B878B868B898B888B8B8B8A8B8DD
:1033300058B848B878B868B898B888B8B8B8A8B8CD
:1033400058B848B878B868B898B888B8B8B8A8B8BD
:1033500058B848B878B868B898B888B8B8B8A8B8AD
:1033600058B848B878B868B898B888B8B8B8A8B89D
:1033700058B848B878B868B898B888B8B8B8A8B88D
:1033800058B848B878B868B898B888B8B8B8A8B87D
:1033900058B848B878B868B898B888B8B8B8A8B86D
:1033A00058B848B878B868B898B888B8B8B8A8B85D
:1033B00058B848B878B868B898B888B8B8B8A8B84D
:1033C00058B848B878B868B898B888B8B8B8A8B83D
:1033D00058B848B878B868B898B888B8B8B8A8B82D
:1033E00058B848B878B868B898B888B8B8B8A8B81D
:1033F00058B848B878B868B898B888B8B8B8A8B80D
:1034000058B848B878B868B898B888B8B8B8A8B8FC
:1034100058B848B878B868B898B888B8B8B8A8B8EC
:1034200058B848B878B868B898B888B8B8B8A8B8DC
:1034300058B848B878B868B898B888B8B8B8A8B8CC
:1034400058B848B878B868B898B888B8B8B8A8B8BC
:1034500058B848B878B868B898B888B8B8B8A8B8AC
:1034600058B848B878B868B898B888B8B8B8A8B89C
:1034700058B848B878B868B898B888B8B8B8A8B88C
:1034800058B848B878B868B898B888B8B8B8A8B87C
:1034900058B848B878B868B898B888B8B8B8A8B86C
:1034A00058B848B878B868B898B888B8B8B8A8B85C
:1034B00058B848B878B868B898B888B8B8B8A8B84C
:1034C00058B848B878B868B898B888B8B8B8A8B83C
:1034D00058B848B878B868B898B888B8B8B8A8B82C
:1034E00058B848B878B868B898B888B8B8B8A8B81C
:1034F00058B848B878B868B898B888B8B8B8A8B80C
:1035000058B848B878B868B898B888B8B8B8A8B8FB
:1035100058B848B878B868B898B888B8B8B8A8B8EB
:1035200058B848B878B868B898B888B8B8B8A8B8DB
:1035300058B848B878B868B898B888B8B8B8A8B8CB
:1035400058B848B878B868B898B888B8B8B8A8B8BB
:1035500058B848B878B868B898B888B8B8B8A8B8AB
:1035600058B848B878B868B898B888B8B8B8A8B89B
:1035700058B848B878B868B898B888B8B8B8A8B88B
:1035800058B848B878B868B898B888B8B8B8A8B87B
:1035900058B848B878B868B898B888B8B8B8A8B86B
:1035A00058B848B878B868B898B888B8B8B8A8B85B
:1035B00058B848B878B868B898B888B8B8B8A8B84B
:1035C00058B848B878B868B898B888B8B8B8A8B83B
:1035D00058B848B878B868B898B888B8B8B8A8B82B
:1035E00058B848B878B868B898B888B8B8B8A8B81B
:1035F00058B848B878B868B898B888B8B8B8A8B80B
:1036000058B848B878B868B898B888B8B8B8A8B8FA
:1036100058B848B878B868B898B888B8B8B8A8B8EA
:1036200058B848B878B868B898B888B8B8B8A8B8DA
:1036300058B848B878B868B898B888B8B8B8A8B8CA
:1036400058B848B878B868B898B888B8B8B8A8B8BA
:1036500058B848B878B868B898B888B8B8B8A8B8AA
:1036600058B848B878B868B898B888B8B8B8A8B89A
:1036700058B848B878B868B898B888B8B8B8A8B88A
:1036800058B848B878B868B898B888B8B8B8A8B87A
:1036900058B848B878B868B898B888B8B8B8A8B86A
:1036A00058B848B878B868B898B888B8B8B8A8B85A
:1036B00058B848B878B868B898B888B8B8B8A8B84A
:1036C00058B848B878B868B898B888B8B8B8A8B83A
:1036D00058B848B878B868B898B888B8B8B8A8B82A
:1036E00058B848B878B868B898B888B8B8B8A8B81A
:1036F00058B848B878B868B898B888B8B8B8A8B80A
:1037000058B848B878B868B898B888B8B8B8A8B8F9
:1037100058B848B878B868B898B888B8B8B8A8B8E9
:1037200058B848B878B868B898B888B8B8B8A8B8D9
:1037300058B848B878B868B898B888B8B8B8A8B8C9
:1037400058B848B878B868B898B888B8B8B8A8B8B9
:1037500058B848B878B868B898B888B8B8B8A8B8A9
:1037600058B848B878B868B898B888B8B8B8A8B899
:1037700058B848B878B868B898B888B8B8B8A8B889
:1037800058B848B878B868B898B888B8B8B8A8B879
:1037900058B848B878B868B898B888B8B8B8A8B869
:1037A00058B848B878B868B898B888B8B8B8A8B859
:1037B00058B848B878B868B898B888B8B8B8A8B849
:1037C00058B848B878B868B898B888B8B8B8A8B839
:1037D00058B848B878B868B898B888B8B8B8A8B829
:1037E00058B848B878B868B898B888B8B8B8A8B819
:1037F00058B848B878B868B898B888B8B8B8A8B809
:1038000058B848B878B868B898B888B8B8B8A8B8F8
:1038100058B848B878B868B898B888B8B8B8A8B8E8
:1038200058B848B878B868B898B888B8B8B8A8B8D8
:1038300058B848B878B868B898B888B8B8B8A8B8C8
:1038400058B848B878B868B898B888B8B8B8A8B8B8
:1038500058B848B878B868B898B888B8B8B8A8B8A8
:1038600058B848B878B868B898B888B8B8B8A8B898
:1038700058B848B878B868B898B888B8B8B8A8B888
:1038800058B848B878B868B898B888B8B8B8A8B878
:1038900058B848B878B868B898B888B8B8B8A8B868
:1038A00058B848B878B868B898B888B8B8B8A8B858
:1038B00058B848B878B868B898B888B8B8B8A8B848
:1038C00058B848B878B868B898B888B8B8B8A8B838
:1038D00058B848B878B868B898B888B8B8B8A8B828
:1038E00058B848B878B868B898B888B8B8B8A8B818
:1038F00058B848B878B868B898B888B8B8B8A8B808
:1039000058B848B878B868B898B888B8B8B8A8B8F7
:1039100058B848B878B868B898B888B8B8B8A8B8E7
:1039200058B848B878B868B898B888B8B8B8A8B8D7
:1039300058B848B878B868B898B888B8B8B8A8B8C7
:1039400058B848B878B868B898B888B8B8B8A8B8B7
:1039500058B848B878B868B898B888B8B8B8A8B8A7
:1039600058B848B878B868B898B888B8B8B8A8B897
:1039700058B848B878B868B898B888B8B8B8A8B887
:1039800058B848B878B868B898B888B8B8B8A8B877
:1039900058B848B878B868B898B888B8B8B8A8B867
:1039A00058B848B878B868B898B888B8B8B8A8B857
:1039B00058B848B878B868B898B888B8B8B8A8B847
:1039C00058B848B878B868B898B888B8B8B8A8B837
:1039D00058B848B878B868B898B888B8B8B8A8B827
:1039E00058B848B878B868B898B888B8B8B8A8B817
:1039F00058B848B878B868B898B888B8B8B8A8B807
:103A000058B848B878B868B898B888B8B8B8A8B8F6
:103A100058B848B878B868B898B888B8B8B8A8B8E6
:103A200058B848B878B868B898B888B8B8B8A8B8D6
:103A300058B848B878B868B898B888B8B8B8A8B8C6
:103A400058B848B878B868B898B888B8B8B8A8B8B6
:103A500058B848B878B868B898B888B8B8B8A8B8A6
:103A600058B848B878B868B898B888B8B8B8A8B896
:103A700058B848B878B868B898B888B8B8B8A8B886
:103A800058B848B878B868B898B888B8B8B8A8B876
:103A900058B848B878B868B898B888B8B8B8A8B866
:103AA00058B848B878B868B898B888B8B8B8A8B856
:103AB00058B848B878B868B898B888B8B8B8A8B846
:103AC00058B848B878B868B898B888B8B8B8A8B836
:103AD00058B848B878B868B898B888B8B8B8A8B826
:103AE00058B848B878B868B898B888B8B8B8A8B816
:103AF00058B848B878B868B898B888B8B8B8A8B806
:103B000058B848B878B868B898B888B8B8B8A8B8F5
:103B100058B848B878B868B898B888B8B8B8A8B8E5
:103B200058B848B878B868B898B888B8B8B8A8B8D5
:103B300058B848B878B868B898B888B8B8B8A8B8C5
:103B400058B848B878B868B898B888B8B8B8A8B8B5
:103B500058B848B878B868B898B888B8B8B8A8B8A5
:103B600058B848B878B868B898B888B8B8B8A8B895
:103B700058B848B878B868B898B888B8B8B8A8B885
:103B800058B848B878B868B898B888B8B8B8A8B875
:103B900058B848B878B868B898B888B8B8B8A8B865
:103BA00058B848B878B868B898B888B8B8B8A8B855
:103BB00058B848B878B868B898B888B8B8B8A8B845
:103BC00058B848B878B868B898B888B8B8B8A8B835
:103BD00058B848B878B868B898B888B8B8B8A8B825
:103BE00058B848B878B868B898B888B8B8B8A8B815
:103BF00058B848B878B868B898B888B8B8B8A8B805
:103C000058B848B878B868B898B888B8B8B8A8B8F4
:103C100058B848B878B868B898B888B8B8B8A8B8E4
:103C200058B848B878B868B898B888B8B8B8A8B8D4
:103C300058B848B878B868B898B888B8B8B8A8B8C4
:103C400058B848B878B868B898B888B8B8B8A8B8B4
:103C500058B848B878B868B898B888B8B8B8A8B8A4
:103C600058B848B878B868B898B888B8B8B8A8B894
:103C700058B848B878B868B898B888B8B8B8A8B884
:103C800058B848B878B868B898B888B8B8B8A8B874
:103C900058B848B878B868B898B888B8B8B8A8B864
:103CA00058B848B878B868B898B888B8B8B8A8B854
:103CB00058B848B878B868B898B888B8B8B8A8B844
:103CC00058B848B878B868B898B888B8B8B8A8B834
:103CD00058B848B878B868B898B888B8B8B8A8B824
:103CE00058B848B878B868B898B888B8B8B8A8B814
:103CF00058B848B878B868B898B888B8B8B8A8B804
:103D000058B848B878B868B898B888B8B8B8A8B8F3
:103D100058B848B878B868B898B888B8B8B8A8B8E3
:103D200058B848B878B868B898B888B8B8B8A8B8D3
:103D300058B848B878B868B898B888B8B8B8A8B8C3
:103D400058B848B878B868B898B888B8B8B8A8B8B3
:103D500058B848B878B868B898B888B8B8B8A8B8A3
:103D600058B848B878B868B898B888B8B8B8A8B893
:103D700058B848B878B868B898B888B8B8B8A8B883
:103D800058B848B878B868B898B888B8B8B8A8B873
:103D900058B848B878B868B898B888B8B8B8A8B863
:103DA00058B848B878B868B898B888B8B8B8A8B853
:103DB00058B848B878B868B898B888B8B8B8A8B843
:103DC00058B848B878B868B898B888B8B8B8A8B833
:103DD00058B848B878B868B898B888B8B8B8A8B823
:103DE00058B848B878B868B898B888B8B8B8A8B813
:103DF00058B848B878B868B898B888B8B8B8A8B803
:103E000058B848B878B868B898B888B8B8B8A8B8F2
:103E100058B848B878B868B898B888B8B8B8A8B8E2
:103E200058B848B878B868B898B888B8B8B8A8B8D2
:103E300058B848B878B868B898B888B8B8B8A8B8C2
:103E400058B848B878B868B898B888B8B8B8A8B8B2
:103E500058B848B878B868B898B888B8B8B8A8B8A2
:103E600058B848B878B868B898B888B8B8B8A8B892
:103E700058B848B878B868B898B888B8B8B8A8B882
:103E800058B848B878B868B898B888B8B8B8A8B872
:103E900058B848B878B868B898B888B8B8B8A8B862
:103EA00058B848B878B868B898B888B8B8B8A8B852
:103EB00058B848B878B868B898B888B8B8B8A8B842
:103EC00058B848B878B868B898B888B8B8B8A8B832
:103ED00058B848B878B868B898B888B8B8B8A8B822
:103EE00058B848B878B868B898B888B8B8B8A8B812
:103EF00058B848B878B868B898B888B8B8B8A8B802
:103F000058B848B878B868B898B888B8B8B8A8B8F1
:103F100058B848B878B868B898B888B8B8B8A8B8E1
:103F200058B848B878B868B898B888B8B8B8A8B8D1
:103F300058B848B878B868B898B888B8B8B8A8B8C1
:103F400058B848B878B868B898B888B8B8B8A8B8B1
:103F500058B848B878B868B898B888B8B8B8A8B8A1
:103F600058B848B878B868B898B888B8B8B8A8B891
:103F700058B848B878B868B898B888B8B8B8A8B881
:103F800058B848B878B868B898B888B8B8B8A8B871
:103F900058B848B878B868B898B888B8B8B8A8B861
:103FA00058B848B878B868B898B888B8B8B8A8B851
:103FB00058B848B878B868B898B888B8B8B8A8B841
:103FC00058B848B878B868B898B888B8B8B8A8B831
:103FD00058B848B878B868B898B888B8B8B8A8B821
:103FE00058B848B878B868B898B888B8B8B8A8B811
:103FF00058B848B878B868B898B888B8B8B8A8B801
:1040000058B848B878B868B898B888B8B8B8A8B8F0
:1040100058B848B878B868B898B888B8B8B8A8B8E0
:1040200058B848B878B868B898B888B8B8B8A8B8D0
:1040300058B848B878B868B898B888B8B8B8A8B8C0
:1040400058B848B878B868B898B888B8B8B8A8B8B0
:1040500058B848B878B868B898B888B8B8B8A8B8A0
:1040600058B848B878B868B898B888B8B8B8A8B890
:1040700058B848B878B868B898B888B8B8B8A8B880
:1040800058B848B878B868B898B888B8B8B8A8B870
:1040900058B848B878B868B898B888B8B8B8A8B860
:1040A00058B848B878B868B898B888B8B8B8A8B850
:1040B00058B848B878B868B898B888B8B8B8A8B840
:1040C00058B848B878B868B898B888B8B8B8A8B830
:1040D00058B848B878B868B898B888B8B8B8A8B820
:1040E00058B848B878B868B898B888B8B8B8A8B810
:1040F00058B848B878B868B898B888B8B8B8A8B800
:1041000058B848B878B868B898B888B8B8B8A8B8EF
:1041100058B848B878B868B898B888B8B8B8A8B8DF
:1041200058B848B878B868B898B888B8B8B8A8B8CF
:1041300058B848B878B868B898B888B8B8B8A8B8BF
:1041400058B848B878B868B898B888B8B8B8A8B8AF
:1041500058B848B878B868B898B888B8B8B8A8B89F
:1041600058B848B878B868B898B888B8B8B8A8B88F
:1041700058B848B878B868B898B888B8B8B8A8B87F
:1041800058B848B878B868B898B888B8B8B8A8B86F
:1041900058B848B878B868B898B888B8B8B8A8B85F
:1041A00058B848B878B868B898B888B8B8B8A8B84F
:1041B00058B848B878B868B898B888B8B8B8A8B83F
:1041C00058B848B878B868B898B888B8B8B8A8B82F
:1041D00058B848B878B868B898B888B8B8B8A8B81F
:1041E00058B848B878B868B898B888B8B8B8A8B80F
:1041F00058B848B878B868B898B888B8B8B8A8B8FF
:1042000058B848B878B868B898B888B8B8B8A8B8EE
:1042100058B848B878B868B898B888B8B8B8A8B8DE
:1042200058B848B878B868B898B888B8B8B8A8B8CE
:1042300058B848B878B868B898B888B8B8B8A8B8BE
:1042400058B848B878B868B898B888B8B8B8A8B8AE
:1042500058B848B878B868B898B888B8B8B8A8B89E
:1042600058B848B878B868B898B888B8B8B8A8B88E
:1042700058B848B878B868B898B888B8B8B8A8B87E
:1042800058B848B878B868B898B888B8B8B8A8B86E
:1042900058B848B878B868B898B888B8B8B8A8B85E
:1042A00058B848B878B868B898B888B8B8B8A8B84E
:1042B00058B848B878B868B898B888B8B8B8A8B83E
:1042C00058B848B878B868B898B888B8B8B8A8B82E
:1042D00058B848B878B868B898B888B8B8B8A8B81E
:1042E00058B848B878B868B898B888B8B8B8A8B80E
:1042F00058B848B878B868B898B888B8B8B8A8B8FE
:1043000058B848B878B868B898B888B8B8B8A8B8ED
:1043100058B848B878B868B898B888B8B8B8A8B8DD
:1043200058B848B878B868B898B888B8B8B8A8B8CD
:1043300058B848B878B868B898B888B8B8B8A8B8BD
:1043400058B848B878B868B898B888B8B8B8A8B8AD
:1043500058B848B878B868B898B888B8B8B8A8B89D
:1043600058B848B878B868B898B888B8B8B8A8B88D
:1043700058B848B878B868B898B888B8B8B8A8B87D
:1043800058B848B878B868B898B888B8B8B8A8B86D
:1043900058B848B878B868B898B888B8B8B8A8B85D
:1043A00058B848B878B868B898B888B8B8B8A8B84D
:1043B00058B848B878B868B898B888B8B8B8A8B83D
:1043C00058B848B878B868B898B888B8B8B8A8B82D
:1043D00058B848B878B868B898B888B8B8B8A8B81D
:1043E00058B848B878B868B898B888B8B8B8A8B80D
:1043F00058B848B878B868B898B888B8B8B8A8B8FD
:1044000058B848B878B868B898B888B8B8B8A8B8EC
:1044100058B848B878B868B898B888B8B8B8A8B8DC
:1044200058B848B878B868B898B888B8B8B8A8B8CC
:1044300058B848B878B868B898B888B8B8B8A8B8BC
:1044400058B848B878B868B898B888B8B8B8A8B8AC
:1044500058B848B878B868B898B888B8B8B8A8B89C
:1044600058B848B878B868B898B888B8B8B8A8B88C
:1044700058B848B878B868B898B888B8B8B8A8B87C
:1044800058B848B878B868B898B888B8B8B8A8B86C
:1044900058B848B878B868B898B888B8B8B8A8B85C
:1044A00058B848B878B868B898B888B8B8B8A8B84C
:1044B00058B848B878B868B898B888B8B8B8A8B83C
:1044C00058B848B878B868B898B888B8B8B8A8B82C
:1044D00058B848B878B868B898B888B8B8B8A8B81C
:1044E00058B848B878B868B898B888B8B8B8A8B80C
:1044F00058B848B878B868B898B888B8B8B8A8B8FC
:1045000058B848B878B868B898B888B8B8B8A8B8EB
:1045100058B848B878B868B898B888B8B8B8A8B8DB
:1045200058B848B878B868B898B888B8B8B8A8B8CB
:1045300058B848B878B868B898B888B8B8B8A8B8BB
:1045400058B848B878B868B898B888B8B8B8A8B8AB
:1045500058B848B878B868B898B888B8B8B8A8B89B
:1045600058B848B878B868B898B888B8B8B8A8B88B
:1045700058B848B878B868B898B888B8B8B8A8B87B
:1045800058B848B878B868B898B888B8B8B8A8B86B
:1045900058B848B878B868B898B888B8B8B8A8B85B
:1045A00058B848B878B868B898B888B8B8B8A8B84B
:1045B00058B848B878B868B898B888B8B8B8A8B83B
:1045C00058B848B878B868B898B888B8B8B8A8B82B
:1045D00058B848B878B868B898B888B8B8B8A8B81B
:1045E00058B848B878B868B898B888B8B8B8A8B80B
:1045F00058B848B878B868B898B888B8B8B8A8B8FB
:1046000058B848B878B868B898B888B8B8B8A8B8EA
:1046100058B848B878B868B898B888B8B8B8A8B8DA
:1046200058B848B878B868B898B888B8B8B8A8B8CA
:1046300058B848B878B868B898B888B8B8B8A8B8BA
:1046400058B848B878B868B898B888B8B8B8A8B8AA
:1046500058B848B878B868B898B888B8B8B8A8B89A
:1046600058B848B878B868B898B888B8B8B8A8B88A
:1046700058B848B878B868B898B888B8B8B8A8B87A
:1046800058B848B878B868B898B888B8B8B8A8B86A
:1046900058B848B878B868B898B888B8B8B8A8B85A
:1046A00058B848B878B868B898B888B8B8B8A8B84A
:1046B00058B848B878B868B898B888B8B8B8A8B83A
:1046C00058B848B878B868B898B888B8B8B8A8B82A
:1046D00058B848B878B868B898B888B8B8B8A8B81A
:1046E00058B848B878B868B898B888B8B8B8A8B80A
:1046F00058B848B878B868B898B888B8B8B8A8B8FA
:1047000058B848B878B868B898B888B8B8B8A8B8E9
:1047100058B848B878B868B898B888B8B8B8A8B8D9
:1047200058B848B878B868B898B888B8B8B8A8B8C9
:1047300058B848B878B868B898B888B8B8B8A8B8B9
:1047400058B848B878B868B898B888B8B8B8A8B8A9
:1047500058B848B878B868B898B888B8B8B8A8B899
:1047600058B848B878B868B898B888B8B8B8A8B889
:1047700058B848B878B868B898B888B8B8B8A8B879
:1047800058B848B878B868B898B888B8B8B8A8B869
:1047900058B848B878B868B898B888B8B8B8A8B859
:1047A00058B848B878B868B898B888B8B8B8A8B849
:1047B00058B848B878B868B898B888B8B8B8A8B839
:1047C00058B848B878B868B898B888B8B8B8A8B829
:1047D00058B848B878B868B898B888B8B8B8A8B819
:1047E00058B848B878B868B898B888B8B8B8A8B809
:1047F00058B848B878B868B898B888B8B8B8A8B8F9
:1048000058B848B878B868B898B888B8B8B8A8B8E8
:1048100058B848B878B868B898B888B8B8B8A8B8D8
:1048200058B848B878B868B898B888B8B8B8A8B8C8
:1048300058B848B878B868B898B888B8B8B8A8B8B8
:1048400058B848B878B868B898B888B8B8B8A8B8A8
:1048500058B848B878B868B898B888B8B8B8A8B898
:1048600058B848B878B868B898B888B8B8B8A8B888
:1048700058B848B878B868B898B888B8B8B8A8B878
:1048800058B848B878B868B898B888B8B8B8A8B868
:1048900058B848B878B868B898B888B8B8B8A8B858
:1048A00058B848B878B868B898B888B8B8B8A8B848
:1048B00058B848B878B868B898B888B8B8B8A8B838
:1048C00058B848B878B868B898B888B8B8B8A8B828
:1048D00058B848B878B868B898B888B8B8B8A8B818
:1048E00058B848B878B868B898B888B8B8B8A8B808
:1048F00058B848B878B868B898B888B8B8B8A8B8F8
:1049000058B848B878B868B898B888B8B8B8A8B8E7
:1049100058B848B878B868B898B888B8B8B8A8B8D7
:1049200058B848B878B868B898B888B8B8B8A8B8C7
:1049300058B848B878B868B898B888B8B8B8A8B8B7
:1049400058B848B878B868B898B888B8B8B8A8B8A7
:1049500058B848B878B868B898B888B8B8B8A8B897
:1049600058B848B878B868B898B888B8B8B8A8B887
:1049700058B848B878B868B898B888B8B8B8A8B877
:1049800058B848B878B868B898B888B8B8B8A8B867
:1049900058B848B878B868B898B888B8B8B8A8B857
:1049A00058B848B878B868B898B888B8B8B8A8B847
:1049B00058B848B878B868B898B888B8B8B8A8B837
:1049C00058B848B878B868B898B888B8B8B8A8B827
:1049D00058B848B878B868B898B888B8B8B8A8B817
:1049E00058B848B878B868B898B888B8B8B8A8B807
:1049F00058B848B878B868B898B888B8B8B8A8B8F7
:104A000058B848B878B868B898B888B8B8B8A8B8E6
:104A100058B848B878B868B898B888B8B8B8A8B8D6
:104A200058B848B878B868B898B888B8B8B8A8B8C6
:104A300058B848B878B868B898B888B8B8B8A8B8B6
:104A400058B848B878B868B898B888B8B8B8A8B8A6
:104A500058B848B878B868B898B888B8B8B8A8B896
:104A600058B848B878B868B898B888B8B8B8A8B886
:104A700058B848B878B868B898B888B8B8B8A8B876
:104A800058B848B878B868B898B888B8B8B8A8B866
:104A900058B848B878B868B898B888B8B8B8A8B856
:104AA00058B848B878B868B898B888B8B8B8A8B846
:104AB00058B848B878B868B898B888B8B8B8A8B836
:104AC00058B848B878B868B898B888B8B8B8A8B826
:104AD00058B848B878B868B898B888B8B8B8A8B816
:104AE00058B848B878B868B898B888B8B8B8A8B806
:104AF00058B848B878B868B898B888B8B8B8A8B8F6
:104B000058B848B878B868B898B888B8B8B8A8B8E5
:104B100058B848B878B868B898B888B8B8B8A8B8D5
:104B200058B848B878B868B898B888B8B8B8A8B8C5
:104B300058B848B878B868B898B888B8B8B8A8B8B5
:104B400058B848B878B868B898B888B8B8B8A8B8A5
:104B500058B848B878B868B898B888B8B8B8A8B895
:104B600058B848B878B868B898B888B8B8B8A8B885
:104B700058B848B878B868B898B888B8B8B8A8B875
:104B800058B848B878B868B898B888B8B8B8A8B865
:104B900058B848B878B868B898B888B8B8B8A8B855
:104BA00058B848B878B868B898B888B8B8B8A8B845
:104BB00058B848B878B868B898B888B8B8B8A8B835
:104BC00058B848B878B868B898B888B8B8B8A8B825
:104BD00058B848B878B868B898B888B8B8B8A8B815
:104BE00058B848B878B868B898B888B8B8B8A8B805
:104BF00058B848B878B868B898B888B8B8B8A8B8F5
:104C000058B848B878B868B898B888B8B8B8A8B8E4
:104C100058B848B878B868B898B888B8B8B8A8B8D4
:104C200058B848B878B868B898B888B8B8B8A8B8C4
:104C300058B848B878B868B898B888B8B8B8A8B8B4
:104C400058B848B878B868B898B888B8B8B8A8B8A4
:104C500058B848B878B868B898B888B8B8B8A8B894
:104C600058B848B878B868B898B888B8B8B8A8B884
:104C700058B848B878B868B898B888B8B8B8A8B874
:104C800058B848B878B868B898B888B8B8B8A8B864
:104C900058B848B878B868B898B888B8B8B8A8B854
:104CA00058B848B878B868B898B888B8B8B8A8B844
:104CB00058B848B878B868B898B888B8B8B8A8B834
:104CC00058B848B878B868B898B888B8B8B8A8B824
:104CD00058B848B878B868B898B888B8B8B8A8B814
:104CE00058B848B878B868B898B888B8B8B8A8B804
:104CF00058B848B878B868B898B888B8B8B8A8B8F4
:104D000058B848B878B868B898B888B8B8B8A8B8E3
:104D100058B848B878B868B898B888B8B8B8A8B8D3
:104D200058B848B878B868B898B888B8B8B8A8B8C3
:104D300058B848B878B868B898B888B8B8B8A8B8B3
:104D400058B848B878B868B898B888B8B8B8A8B8A3
:104D500058B848B878B868B898B888B8B8B8A8B893
:104D600058B848B878B868B898B888B8B8B8A8B883
:104D700058B848B878B868B898B888B8B8B8A8B873
:104D800058B848B878B868B898B888B8B8B8A8B863
:104D900058B848B878B868B898B888B8B8B8A8B853
:104DA00058B848B878B868B898B888B8B8B8A8B843
:104DB00058B848B878B868B898B888B8B8B8A8B833
:104DC00058B848B878B868B898B888B8B8B8A8B823
:104DD00058B848B878B868B898B888B8B8B8A8B813
:104DE00058B848B878B868B898B888B8B8B8A8B803
:104DF00058B848B878B868B898B888B8B8B8A8B8F3
:104E000058B848B878B868B898B888B8B8B8A8B8E2
:104E100058B848B878B868B898B888B8B8B8A8B8D2
:104E200058B848B878B868B898B888B8B8B8A8B8C2
:104E300058B848B878B868B898B888B8B8B8A8B8B2
:104E400058B848B878B868B898B888B8B8B8A8B8A2
:104E500058B848B878B868B898B888B8B8B8A8B892
:104E600058B848B878B868B898B888B8B8B8A8B882
:104E700058B848B878B868B898B888B8B8B8A8B872
:104E800058B848B878B868B898B888B8B8B8A8B862
:104E900058B848B878B868B898B888B8B8B8A8B852
:104EA00058B848B878B868B898B888B8B8B8A8B842
:104EB00058B848B878B868B898B888B8B8B8A8B832
:104EC00058B848B878B868B898B888B8B8B8A8B822
:104ED00058B848B878B868B898B888B8B8B8A8B812
:104EE00058B848B878B868B898B888B8B8B8A8B802
:104EF00058B848B878B868B898B888B8B8B8A8B8F2
:104F000058B848B878B868B898B888B8B8B8A8B8E1
:104F100058B848B878B868B898B888B8B8B8A8B8D1
:104F200058B848B878B868B898B888B8B8B8A8B8C1
:104F300058B848B878B868B898B888B8B8B8A8B8B1
:104F400058B848B878B868B898B888B8B8B8A8B8A1
:104F500058B848B878B868B898B888B8B8B8A8B891
:104F600058B848B878B868B898B888B8B8B8A8B881
:104F700058B848B878B868B898B888B8B8B8A8B871
:104F800058B848B878B868B898B888B8B8B8A8B861
:104F900058B848B878B868B898B888B8B8B8A8B851
:104FA00058B848B878B868B898B888B8B8B8A8B841
:104FB00058B848B878B868B898B888B8B8B8A8B831
:104FC00058B848B878B868B898B888B8B8B8A8B821
:104FD00058B848B878B868B898B888B8B8B8A8B811
:104FE00058B848B878B868B898B888B8B8B8A8B801
:104FF00058B848B878B868B898B888B8B8B8A8B8F1
:1050000058B848B878B868B898B888B8B8B8A8B8E0
:1050100058B848B878B868B898B888B8B8B8A8B8D0
:1050200058B848B878B868B898B888B8B8B8A8B8C0
:1050300058B848B878B868B898B888B8B8B8A8B8B0
:1050400058B848B878B868B898B888B8B8B8A8B8A0
:1050500058B848B878B868B898B888B8B8B8A8B890
:1050600058B848B878B868B898B888B8B8B8A8B880
:1050700058B848B878B868B898B888B8B8B8A8B870
:1050800058B848B878B868B898B888B8B8B8A8B860
:1050900058B848B878B868B898B888B8B8B8A8B850
:1050A00058B848B878B868B898B888B8B8B8A8B840
:1050B00058B848B878B868B898B888B8B8B8A8B830
:1050C00058B848B878B868B898B888B8B8B8A8B820
:1050D00058B848B878B868B898B888B8B8B8A8B810
:1050E00058B848B878B868B898B888B8B8B8A8B800
:1050F00058B848B878B868B898B888B8B8B8A8B8F0
:1051000058B848B878B868B898B888B8B8B8A8B8DF
:1051100058B848B878B868B898B888B8B8B8A8B8CF
:1051200058B848B878B868B898B888B8B8B8A8B8BF
:1051300058B848B878B868B898B888B8B8B8A8B8AF
:1051400058B848B878B868B898B888B8B8B8A8B89F
:1051500058B848B878B868B898B888B8B8B8A8B88F
:1051600058B848B878B868B898B888B8B8B8A8B87F
:1051700058B848B878B868B898B888B8B8B8A8B86F
:1051800058B848B878B868B898B888B8B8B8A8B85F
:1051900058B848B878B868B898B888B8B8B8A8B84F
:1051A00058B848B878B868B898B888B8B8B8A8B83F
:1051B00058B848B878B868B898B888B8B8B8A8B82F
:1051C00058B848B878B868B898B888B8B8B8A8B81F
:1051D00058B848B878B868B898B888B8B8B8A8B80F
:1051E00058B848B878B868B898B888B8B8B8A8B8FF
:1051F00058B848B878B868B898B888B8B8B8A8B8EF
:1052000058B848B878B868B898B888B8B8B8A8B8DE
:1052100058B848B878B868B898B888B8B8B8A8B8CE
:1052200058B848B878B868B898B888B8B8B8A8B8BE
:1052300058B848B878B868B898B888B8B8B8A8B8AE
:1052400058B848B878B868B898B888B8B8B8A8B89E
:1052500058B848B878B868B898B888B8B8B8A8B88E
:1052600058B848B878B868B898B888B8B8B8A8B87E
:1052700058B848B878B868B898B888B8B8B8A8B86E
:1052800058B848B878B868B898B888B8B8B8A8B85E
:1052900058B848B878B868B898B888B8B8B8A8B84E
:1052A00058B848B878B868B898B888B8B8B8A8B83E
:1052B00058B848B878B868B898B888B8B8B8A8B82E
:1052C00058B848B878B868B898B888B8B8B8A8B81E
:1052D00058B848B878B868B898B888B8B8B8A8B80E
:1052E00058B848B878B868B898B888B8B8B8A8B8FE
:1052F00058B848B878B868B898B888B8B8B8A8B8EE
:1053000058B848B878B868B898B888B8B8B8A8B8DD
:1053100058B848B878B868B898B888B8B8B8A8B8CD
:1053200058B848B878B868B898B888B8B8B8A8B8BD
:1053300058B848B878B868B898B888B8B8B8A8B8AD
:1053400058B848B878B868B898B888B8B8B8A8B89D
:1053500058B848B878B868B898B888B8B8B8A8B88D
:1053600058B848B878B868B898B888B8B8B8A8B87D
:1053700058B848B878B868B898B888B8B8B8A8B86D
:1053800058B848B878B868B898B888B8B8B8A8B85D
:1053900058B848B878B868B898B888B8B8B8A8B84D
:1053A00058B848B878B868B898B888B8B8B8A8B83D
:1053B00058B848B878B868B898B888B8B8B8A8B82D
:1053C00058B848B878B868B898B888B8B8B8A8B81D
:1053D00058B848B878B868B898B888B8B8B8A8B80D
:1053E00058B848B878B868B898B888B8B8B8A8B8FD
:1053F00058B848B878B868B898B888B8B8B8A8B8ED
:1054000058B848B878B868B898B888B8B8B8A8B8DC
:1054100058B848B878B868B898B888B8B8B8A8B8CC
:1054200058B848B878B868B898B888B8B8B8A8B8BC
:1054300058B848B878B868B898B888B8B8B8A8B8AC
:1054400058B848B878B868B898B888B8B8B8A8B89C
:1054500058B848B878B868B898B888B8B8B8A8B88C
:1054600058B848B878B868B898B888B8B8B8A8B87C
:1054700058B848B878B868B898B888B8B8B8A8B86C
:1054800058B848B878B868B898B888B8B8B8A8B85C
:1054900058B848B878B868B898B888B8B8B8A8B84C
:1054A00058B848B878B868B898B888B8B8B8A8B83C
:1054B00058B848B878B868B898B888B8B8B8A8B82C
:1054C00058B848B878B868B898B888B8B8B8A8B81C
:1054D00058B848B878B868B898B888B8B8B8A8B80C
:1054E00058B848B878B868B898B888B8B8B8A8B8FC
:1054F00058B848B878B868B898B888B8B8B8A8B8EC
:1055000058B848B878B868B898B888B8B8B8A8B8DB
:1055100058B848B878B868B898B888B8B8B8A8B8CB
:1055200058B848B878B868B898B888B8B8B8A8B8BB
:1055300058B848B878B868B898B888B8B8B8A8B8AB
:1055400058B848B878B868B898B888B8B8B8A8B89B
:1055500058B848B878B868B898B888B8B8B8A8B88B
:1055600058B848B878B868B898B888B8B8B8A8B87B
:1055700058B848B878B868B898B888B8B8B8A8B86B
:1055800058B848B878B868B898B888B8B8B8A8B85B
:1055900058B848B878B868B898B888B8B8B8A8B84B
:1055A00058B848B878B868B898B888B8B8B8A8B83B
:1055B00058B848B878B868B898B888B8B8B8A8B82B
:1055C00058B848B878B868B898B888B8B8B8A8B81B
:1055D00058B848B878B868B898B888B8B8B8A8B80B
:1055E00058B848B878B868B898B888B8B8B8A8B8FB
:1055F00058B848B878B868B898B888B8B8B8A8B8EB
:1056000058B848B878B868B898B888B8B8B8A8B8DA
:1056100058B848B878B868B898B888B8B8B8A8B8CA
:1056200058B848B878B868B898B888B8B8B8A8B8BA
:1056300058B848B878B868B898B888B8B8B8A8B8AA
:1056400058B848B878B868B898B888B8B8B8A8B89A
:1056500058B848B878B868B898B888B8B8B8A8B88A
:1056600058B848B878B868B898B888B8B8B8A8B87A
:1056700058B848B878B868B898B888B8B8B8A8B86A
:1056800058B848B878B868B898B888B8B8B8A8B85A
:1056900058B848B878B868B898B888B8B8B8A8B84A
:1056A00058B848B878B868B898B888B8B8B8A8B83A
:1056B00058B848B878B868B898B888B8B8B8A8B82A
:1056C00058B848B878B868B898B888B8B8B8A8B81A
:1056D00058B848B878B868B898B888B8B8B8A8B80A
:1056E00058B848B878B868B898B888B8B8B8A8B8FA
:1056F00058B848B878B868B898B888B8B8B8A8B8EA
:1057000058B848B878B868B898B888B8B8B8A8B8D9
:1057100058B848B878B868B898B888B8B8B8A8B8C9
:1057200058B848B878B868B898B888B8B8B8A8B8B9
:1057300058B848B878B868B898B888B8B8B8A8B8A9
:1057400058B848B878B868B898B888B8B8B8A8B899
:1057500058B848B878B868B898B888B8B8B8A8B889
:1057600058B848B878B868B898B888B8B8B8A8B879
:1057700058B848B878B868B898B888B8B8B8A8B869
:1057800058B848B878B868B898B888B8B8B8A8B859
:1057900058B848B878B868B898B888B8B8B8A8B849
:1057A00058B848B878B868B898B888B8B8B8A8B839
:1057B00058B848B878B868B898B888B8B8B8A8B829
:1057C00058B848B878B868B898B888B8B8B8A8B819
:1057D00058B848B878B868B898B888B8B8B8A8B809
:1057E00058B848B878B868B898B888B8B8B8A8B8F9
:1057F00058B848B878B868B898B888B8B8B8A8B8E9
:1058000058B848B878B868B898B888B8B8B8A8B8D8
:1058100058B848B878B868B898B888B8B8B8A8B8C8
:1058200058B848B878B868B898B888B8B8B8A8B8B8
:1058300058B848B878B868B898B888B8B8B8A8B8A8
:1058400058B848B878B868B898B888B8B8B8A8B898
:1058500058B848B878B868B898B888B8B8B8A8B888
:1058600058B848B878B868B898B888B8B8B8A8B878
:1058700058B848B878B868B898B888B8B8B8A8B868
:1058800058B848B878B868B898B888B8B8B8A8B858
:1058900058B848B878B868B898B888B8B8B8A8B848
:1058A00058B848B878B868B898B888B8B8B8A8B838
:1058B00058B848B878B868B898B888B8B8B8A8B828
:1058C00058B848B878B868B898B888B8B8B8A8B818
:1058D00058B848B878B868B898B888B8B8B8A8B808
:1058E00058B848B878B868B898B888B8B8B8A8B8F8
:1058F00058B848B878B868B898B888B8B8B8A8B8E8
:1059000058B848B878B868B898B888B8B8B8A8B8D7
:1059100058B848B878B868B898B888B8B8B8A8B8C7
:1059200058B848B878B868B898B888B8B8B8A8B8B7
:1059300058B848B878B868B898B888B8B8B8A8B8A7
:1059400058B848B878B868B898B888B8B8B8A8B897
:1059500058B848B878B868B898B888B8B8B8A8B887
:1059600058B848B878B868B898B888B8B8B8A8B877
:1059700058B848B878B868B898B888B8B8B8A8B867
:1059800058B848B878B868B898B888B8B8B8A8B857
:1059900058B848B878B868B898B888B8B8B8A8B847
:1059A00058B848B878B868B898B888B8B8B8A8B837
:1059B00058B848B878B868B898B888B8B8B8A8B827
:1059C00058B848B878B868B898B888B8B8B8A8B817
:1059D00058B848B878B868B898B888B8B8B8A8B807
:1059E00058B848B878B868B898B888B8B8B8A8B8F7
:1059F00058B848B878B868B898B888B8B8B8A8B8E7
:105A000058B848B878B868B898B888B8B8B8A8B8D6
:105A100058B848B878B868B898B888B8B8B8A8B8C6
:105A200058B848B878B868B898B888B8B8B8A8B8B6
:105A300058B848B878B868B898B888B8B8B8A8B8A6
:105A400058B848B878B868B898B888B8B8B8A8B896
:105A500058B848B878B868B898B888B8B8B8A8B886
:105A600058B848B878B868B898B888B8B8B8A8B876
:105A700058B848B878B868B898B888B8B8B8A8B866
:105A800058B848B878B868B898B888B8B8B8A8B856
:105A900058B848B878B868B898B888B8B8B8A8B846
:105AA00058B848B878B868B898B888B8B8B8A8B836
:105AB00058B848B878B868B898B888B8B8B8A8B826
:105AC00058B848B878B868B898B888B8B8B8A8B816
:105AD00058B848B878B868B898B888B8B8B8A8B806
