:060000000C9451000C9469
:1000060000000C9400000C9489000C9400000C94E1
:1000160000000C9400000C9400000C9400000C945A
:1000260000000C9400000C9400000C9400000C944A
:1000360000000C9400000C9400000C9400000C943A
:1000460000000C9400000C9400000C9400000C942A
:1000560000000C9400000C9400000C9400000C941A
:1000660000003C0064000AD7233D000000000000A9
:1000760000000000000001002D4E414E00494E4692
:10008600000001001E03680001001F036A0004004F
:1000960024036C00010034037C000000F894EE2772
:1000A600EFBBF1E0F5BFE5BFF8E1A895A4B7A77FE0
:1000B600A4BFF0936000E09360008DE0A2E0BB2750
:1000C600ED938A95E9F780E098E0A0E0B1E0ED9342
:1000D6000197E9F7E8E8F0E085919591009761F0DE
:1000E600A591B59105901590BF01F00105900D926F
:1000F6000197E1F7FB01F0CFE0E0EEBBEFEFEDBFDC
:10010600E8E0EEBFC0E0D3E00C9461050A921A92D3
:10011600FA926A937A938A939A93AA93BA93EA93F2
:10012600FA93EFB7EA93E0E0E0936B000E94DA36C9
:10013600E0930803F0930903E1E0E0930603E091FE
:100146000703F0E0EB31A0E0FA0711F4F3D439C16C
:10015600EB32A0E0FA0719F40E946B3632C1EB339A
:10016600A0E0FA0749F4EFE4EBB9A1E0B0E00E94A1
:100176008B36EFE4EBB925C1EB34A0E0FA0749F47E
:10018600E0910803F0910903E0930003F093010363
:1001960018C1EB35A0E0FA0749F4E0910803F091A5
:1001A6000903E0930203F09303030BC1EB36A0E0CF
:1001B600FA0749F4E0910803F0910903E093040378
:1001C600F0930503FEC0EB38A0E0FA0779F4A0919E
:1001D6000803B0910903119731F0A0910803B0917B
:1001E6000903109711F4C0900803EBC0EB39A0E0A7
:1001F600FA07C1F5A0910803B0910903119731F0F0
:10020600A0910803B0910903109759F5E0910803EE
:10021600E0931303A0911303A13021F4A0910E03E0
:10022600A03009F01EC0E0911E03FF27662777273E
:100236000E942438DF01CB01E0E0F0E068EC72E4D4
:100246000E94FC38A0E0B0E08FE794E40E94AE384C
:10025600E0932003F093210360932203709323031A
:1002660082D2AFC0EB3AA0E0FA07B1F4A09108033E
:10027600B0910903A53FE6E0BE0720F4AC30E3E009
:10028600BE0708F408C0E0910803F0910903E09363
:100296001103F093120395C0EB3CA0E0FA0719F4A2
:1002A6000E94CD368EC0EB3DA0E0FA0711F4CAD30A
:1002B60088C0EB3EA0E0FA0749F4E0910803F0910C
:1002C6000903E0931703F09318037BC0EB3FA0E00C
:1002D600FA0729F4E0910803E093100372C0EA30AC
:1002E600A0E0FA0729F4E0910803E0931E0369C031
:1002F600EA31A0E0FA0779F4A0910803B091090366
:10030600A536E0E0BE0710F0E4E602C0E09108037F
:10031600E0931F0356C0EA32A0E0FA07C9F4E09161
:100326000803F0910903662777270E942438DF0126
:10033600CB01E0E0F0E068EC72E40E94FC38E09368
:100346002403F0932503609326037093270339C093
:10035600EA33A0E0FA07C9F4E0910803F091090333
:10036600662777270E942438DF01CB01E0E0F0E022
:1003760068EC72E40E94FC38E0932803F0932903AA
:1003860060932A0370932B031CC0EA34A0E0FA079B
:10039600C1F4E0910803F0910903662777270E94CC
:1003A6002438DF01CB01E0E0F0E068EC72E40E9463
:1003B600FC38E0932C03F0932D0360932E03709387
:1003C6002F03E0E2E0936B00E991EFBFF991E99129
:1003D600B991A9919991899179916991F990199019
:1003E600099018952A98A1E0B0E00E948B362A9AC7
:1003F6002298A1E0B0E00E948B36229AACECA7D0FE
:10040600AEE4A5D0A0E0A3D0A0E0A1D0AFE79FD0F6
:1004160008950E94C63900E010E020E030E050E088
:10042600E0E0E09306032A98A1E0B0E00E948B3654
:100436002A9A2298A1E0B0E00E948B36229AACEC70
:1004460086D0AEEB84D0ABD00E2F1127A8D0FE2FCE
:10045600E0E00E0F1F1F17FF08C051E0EFEFFFEFA0
:10046600E01BF10B31968F0101C050E020E030E037
:1004760000FF02C02F5B3F4F01FF02C023583F4FD2
:1004860002FF02C026503F4F03FF02C02C503E4FD2
:10049600F8010E947039AAE0B0E00E948439BF01D9
:1004A600D901E4E6F0E00E948C39E60FF71F8F01D0
:1004B600513031F4E0E0F5E0E01BF10B8F0102C0B2
:1004C60000501B4F2A98A1E0B0E00E948B362A9A72
:1004D6002298A1E0B0E00E948B36229AACEC37D08D
:1004E600A4E435D0E0910603E03071F40024001650
:1004F600010629F0EFEFFFEFE017F10709F404C05A
:1005060000930A0310930B030E94CD392696089593
:100516002A98A1E0B0E00E948B362A9A2298A1E0A0
:10052600B0E00E948B36229AACEC11D0A1E0B0E08C
:100536000E948B36AEE40BD0A0E009D0A0E007D035
:10054600AFE705D0A1E0B0E00E948B360895AA93EC
:100556000E94C8393C8110E01830E8F42A9800E07F
:10056600023010F40F5FFCCFE5B1AE2FE32FE17040
:10057600EE0FEE0FE470EA2BE5B900E0023310F45B
:100586000F5FFCCF2A9A00E0043610F40F5FFCCF11
:1005960036951F5FE1CF0E94CF39259608950E94B8
:1005A600C83930E010E0183008F536952A9800E092
:1005B600023010F40F5FFCCF2A9A229800E00C302C
:1005C60010F40F5FFCCFE3B1E470E295E07FEE0F2D
:1005D6003E2B00E00E3110F40F5FFCCF229A00E0B4
:1005E600043610F40F5FFCCF1F5FDDCFE32F0E94B0
:1005F600CF3924960895E0E0E6BD0895E6B508955E
:1006060025970E94C63900E010E0E0E0E093B200D2
:10061600E7E0E093B100219A2998A1E0B0E00E94BA
:100626008B36299A2198E0E0EE83EF83E887E98705
:10063600EA8730E020E050E0A091B200A03510F04B
:100646000C94AF03199904C0203011F4503009F00E
:1006560002C021E0D0DF199B04C0203011F05030D9
:1006660009F001C051E0199904C0203011F0503052
:1006760009F471C050E0C2DF0E2F1127BCDF313004
:1006860008F1E32FF0E031970E946939DE011696F2
:10069600AE0FBF1FEC91EE0FEC930F30E0E01E079C
:1006A60020F00431E0E01E0708F00CC0E32FF0E074
:1006B60031970E946939DE011696AE0FBF1FEC9185
:1006C600E160EC933F5F393211F00C94AE03AE81DA
:1006D600BB27EF81F0E0AE0FBF1FE885F0E0AE0F5D
:1006E600BF1FE985F0E0EA0FFB1FAE2FEA85EA1788
:1006F60089F5FE81E0E0DF01EF81F0E0EA0FFB1F04
:10070600E0933003F0933103F885E0E0DF01E985FB
:10071600F0E0EA0FFB1FE0933203F0933303E0911E
:100726003203F0913303F07859F0E0913203F091FF
:100736003303A0E0B5E00E94B939EA1BFB0B06C003
:10074600E0913203F0913303E050FB4FE093320324
:10075600F093330301C070CFE0E0E093B1000E9454
:10076600CD392B960895E0911F03FF27662777273B
:100776000E942438DF01CB01E0E0F0E068EC72E48F
:100786000E94FC38A0E0B0E08FE794E40E94AE3807
:10079600A0912003B091210380912203909123031D
:1007A6000E94413909F010F40C94F603E0911F03FE
:1007B600FF27662777270E942438DF01CB01E0E078
:1007C600F0E068EC72E40E94FC38A0E0B0E08FE74D
:1007D60094E40E94AE38E0932003F09321036093E3
:1007E600220370932303A0912303AA234AF4E0E093
:1007F600E0932003E0932103E0932203E093230395
:1008060008952C978CE0A0E0B0E0E0E7F0E00E94CD
:10081600D439E0911D03E03009F4F2DEE0911D03C6
:10082600EF5FE0931D03E170E0931D03F2DDF1DD60
:10083600E0910E03E030D9F4E0E0E0930F03E0939B
:100846002003E0932103E0932203E0932303E88748
:10085600E987EA87EB87EC83ED83EE83EF830E94DB
:10086600AE392898ACEFB3E00E94B437C0C0E0912F
:100876000A03F0910B03662777270E942438DF01CD
:10088600CB01E0910C03F0910D03662777270E94B8
:1008960024380E94B3390E945738E887F9876A8757
:1008A6007B870E94A4390E945E380E94A939E88598
:1008B600F9856A857B85A0912403B09125038091F3
:1008C6002603909127030E94AE387F936F93FF9380
:1008D600EF930E949F39A0912803B091290380913C
:1008E6002A0390912B030E94AE38AF91BF918F914E
:1008F6009F910E945E387F936F93FF93EF93AC8135
:10090600BD818E819F81E885F9856A857B850E94F8
:100916005738A0912C03B0912D0380912E0390910E
:100926002F030E94AE38AF91BF918F919F910E9485
:100936005E38E0932003F0932103609322037093C3
:100946002303E885F9856A857B85EC83FD836E83C1
:100956007F8309DFA0912003B091210380912203B8
:10096600909123030E94C0390CF4289AE091200349
:10097600F091210360912203709123030E94EB37CB
:10098600DF010E94B437E0912003F09121036091CA
:100996002203709123030E94EB37EC3FA3E0FA0792
:1009A60009F02898A0912003B09121038091220399
:1009B60090912303E0E0F0E06FE774E40E9457387B
:1009C6000E94EB37DF010E94B437A0912003B0915B
:1009D60021038091220390912303E0E0F0E060E898
:1009E60070E40E94FC380E94EB37E0930F03F89402
:1009F600E0910A03F0910B03E0931403F0931503BF
:100A0600E0910F03E0931603E0911303E0930E03C6
:100A1600E0911103F0911203E0930C03F0930D03A0
:100A2600E0913203F0913303E0931903F0931A0334
:100A3600E0913003F0913103E0931B03F0931C0324
:100A46007894E7CEE0E8E0936100E0E0E0936100AF
:100A5600E0930703E0930803E0930903E4E15E2EC5
:100A6600EAE24E2ECC24E0E0E0930003E09301039B
:100A7600E8EEF3E0E0930203F0930303E0E0E09393
:100A86000403E0930503E0931703E0931803E09350
:100A96000603E5E1E4B9E4E0E5B9EFEFEAB9EFEC26
:100AA600EBB9EFE3E7B9E0E0E8B932DD0E946B3677
:100AB6000E94CD360895E3E0E5BD0895C3DFFBDF70
:100AC600E0E0F5E0E0930A03F0930B03E2ECF6E0D6
:100AD600E0930C03F0930D03E0E0E0930E03E09344
:100AE6000F03E09310037EDC94DCA0E2B3E00E94E7
:100AF600B437E0910A03F0910B03E0931403F093EB
:100B06001503E0910C03F0910D03E0931103F093AC
:100B16001203E0910E03E0931303E0910F03E093B9
:100B26001603E1E0E0936800E0E2E0936B0078945E
:100B360068DEFFCF1A930A93A0910E03A13039F411
:100B4600A0911003A13011F4289A01C02898A09111
:100B56000403B0910503D897B0F0A0910403B091B7
:100B66000503A93EE3E0BE0710F40E946B36A09190
:100B76000403B0910503D7970E948B360E94B736BF
:100B86000E94CD360CC00E94B7360E94CD360E9418
:100B96006B36A0910403B09105030E948B360E9428
:100BA6004736E0910003F09101033A968F010E94C7
:100BB6003936F80131978F01D1F70E94B7360E9476
:100BC60039360E94B7360091020310910303E4E11F
:100BD6005E2EE8E2DE2E0E943936E4E15E2EE8E281
:100BE6004E2EE4E17E2EE8E26E2EE4E19E2EE8E251
:100BF6008E2EE4E1BE2EE8E2AE2E58B848B878B89C
:100C060068B898B888B8B8B8A8B858B848B878B81E
:100C160068B898B888B8B8B8A8B858B848B878B80E
:100C260068B898B888B8B8B8A8B858B848B878B8FE
:100C360068B898B888B8B8B8A8B858B848B878B8EE
:100C460068B898B888B8B8B8A8B858B848B878B8DE
:100C560068B898B888B8B8B8A8B858B848B878B8CE
:100C660068B898B888B8B8B8A8B858B848B878B8BE
:100C760068B898B888B8B8B8A8B858B848B878B8AE
:100C860068B898B888B8B8B8A8B858B848B878B89E
:100C960068B898B888B8B8B8A8B858B848B878B88E
:100CA60068B898B888B8B8B8A8B858B848B878B87E
:100CB60068B898B888B8B8B8A8B8E4E15E2EEAE291
:100CC6004E2EE4E17E2EEAE26E2EE4E19E2EEAE26C
:100CD6008E2EE4E1BE2EEAE2AE2E58B848B878B8B9
:100CE60068B898B888B8B8B8A8B8CC2071F4E4E168
:100CF6005E2EEAE24E2EE4E17E2EEAE26E2EE4E17C
:100D06009E2EEAE28E2EE4E10DC0E4E15E2EEAE2DA
:100D16004E2EEAE17E2EEAE26E2EEAE19E2EEAE20F
:100D26008E2EEAE1BE2EEAE2AE2E58B848B878B862
:100D360068B898B888B8B8B8A8B858B848B878B8ED
:100D460068B898B888B8B8B8A8B858B848B878B8DD
:100D560068B898B888B8B8B8A8B858B848B878B8CD
:100D660068B898B888B8B8B8A8B858B848B878B8BD
:100D760068B898B888B8B8B8A8B858B848B878B8AD
:100D860068B898B888B8B8B8A8B858B848B878B89D
:100D960068B898B888B8B8B8A8B858B848B878B88D
:100DA60068B898B888B8B8B8A8B858B848B878B87D
:100DB60068B898B888B8B8B8A8B858B848B878B86D
:100DC60068B898B888B8B8B8A8B858B848B878B85D
:100DD60068B898B888B8B8B8A8B858B848B878B84D
:100DE60068B898B888B8B8B8A8B858B848B878B83D
:100DF60068B898B888B8B8B8A8B858B848B878B82D
:100E060068B898B888B8B8B8A8B858B848B878B81C
:100E160068B898B888B8B8B8A8B858B848B878B80C
:100E260068B898B888B8B8B8A8B858B848B878B8FC
:100E360068B898B888B8B8B8A8B858B848B878B8EC
:100E460068B898B888B8B8B8A8B858B848B878B8DC
:100E560068B898B888B8B8B8A8B858B848B878B8CC
:100E660068B898B888B8B8B8A8B858B848B878B8BC
:100E760068B898B888B8B8B8A8B858B848B878B8AC
:100E860068B898B888B8B8B8A8B858B848B878B89C
:100E960068B898B888B8B8B8A8B858B848B878B88C
:100EA60068B898B888B8B8B8A8B858B848B878B87C
:100EB60068B898B888B8B8B8A8B858B848B878B86C
:100EC60068B898B888B8B8B8A8B858B848B878B85C
:100ED60068B898B888B8B8B8A8B858B848B878B84C
:100EE60068B898B888B8B8B8A8B858B848B878B83C
:100EF60068B898B888B8B8B8A8B858B848B878B82C
:100F060068B898B888B8B8B8A8B858B848B878B81B
:100F160068B898B888B8B8B8A8B858B848B878B80B
:100F260068B898B888B8B8B8A8B858B848B878B8FB
:100F360068B898B888B8B8B8A8B858B848B878B8EB
:100F460068B898B888B8B8B8A8B858B848B878B8DB
:100F560068B898B888B8B8B8A8B858B848B878B8CB
:100F660068B898B888B8B8B8A8B858B848B878B8BB
:100F760068B898B888B8B8B8A8B858B848B878B8AB
:100F860068B898B888B8B8B8A8B858B848B878B89B
:100F960068B898B888B8B8B8A8B858B848B878B88B
:100FA60068B898B888B8B8B8A8B858B848B878B87B
:100FB60068B898B888B8B8B8A8B858B848B878B86B
:100FC60068B898B888B8B8B8A8B858B848B878B85B
:100FD60068B898B888B8B8B8A8B858B848B878B84B
:100FE60068B898B888B8B8B8A8B858B848B878B83B
:100FF60068B898B888B8B8B8A8B858B848B878B82B
:1010060068B898B888B8B8B8A8B858B848B878B81A
:1010160068B898B888B8B8B8A8B858B848B878B80A
:1010260068B898B888B8B8B8A8B858B848B878B8FA
:1010360068B898B888B8B8B8A8B858B848B878B8EA
:1010460068B898B888B8B8B8A8B858B848B878B8DA
:1010560068B898B888B8B8B8A8B858B848B878B8CA
:1010660068B898B888B8B8B8A8B858B848B878B8BA
:1010760068B898B888B8B8B8A8B858B848B878B8AA
:1010860068B898B888B8B8B8A8B858B848B878B89A
:1010960068B898B888B8B8B8A8B858B848B878B88A
:1010A60068B898B888B8B8B8A8B858B848B878B87A
:1010B60068B898B888B8B8B8A8B858B848B878B86A
:1010C60068B898B888B8B8B8A8B858B848B878B85A
:1010D60068B898B888B8B8B8A8B858B848B878B84A
:1010E60068B898B888B8B8B8A8B858B848B878B83A
:1010F60068B898B888B8B8B8A8B858B848B878B82A
:1011060068B898B888B8B8B8A8B858B848B878B819
:1011160068B898B888B8B8B8A8B858B848B878B809
:1011260068B898B888B8B8B8A8B858B848B878B8F9
:1011360068B898B888B8B8B8A8B858B848B878B8E9
:1011460068B898B888B8B8B8A8B858B848B878B8D9
:1011560068B898B888B8B8B8A8B858B848B878B8C9
:1011660068B898B888B8B8B8A8B858B848B878B8B9
:1011760068B898B888B8B8B8A8B858B848B878B8A9
:1011860068B898B888B8B8B8A8B858B848B878B899
:1011960068B898B888B8B8B8A8B858B848B878B889
:1011A60068B898B888B8B8B8A8B858B848B878B879
:1011B60068B898B888B8B8B8A8B858B848B878B869
:1011C60068B898B888B8B8B8A8B858B848B878B859
:1011D60068B898B888B8B8B8A8B858B848B878B849
:1011E60068B898B888B8B8B8A8B858B848B878B839
:1011F60068B898B888B8B8B8A8B858B848B878B829
:1012060068B898B888B8B8B8A8B858B848B878B818
:1012160068B898B888B8B8B8A8B858B848B878B808
:1012260068B898B888B8B8B8A8B858B848B878B8F8
:1012360068B898B888B8B8B8A8B858B848B878B8E8
:1012460068B898B888B8B8B8A8B858B848B878B8D8
:1012560068B898B888B8B8B8A8B858B848B878B8C8
:1012660068B898B888B8B8B8A8B858B848B878B8B8
:1012760068B898B888B8B8B8A8B858B848B878B8A8
:1012860068B898B888B8B8B8A8B858B848B878B898
:1012960068B898B888B8B8B8A8B858B848B878B888
:1012A60068B898B888B8B8B8A8B858B848B878B878
:1012B60068B898B888B8B8B8A8B858B848B878B868
:1012C60068B898B888B8B8B8A8B858B848B878B858
:1012D60068B898B888B8B8B8A8B858B848B878B848
:1012E60068B898B888B8B8B8A8B858B848B878B838
:1012F60068B898B888B8B8B8A8B858B848B878B828
:1013060068B898B888B8B8B8A8B858B848B878B817
:1013160068B898B888B8B8B8A8B858B848B878B807
:1013260068B898B888B8B8B8A8B858B848B878B8F7
:1013360068B898B888B8B8B8A8B858B848B878B8E7
:1013460068B898B888B8B8B8A8B858B848B878B8D7
:1013560068B898B888B8B8B8A8B858B848B878B8C7
:1013660068B898B888B8B8B8A8B858B848B878B8B7
:1013760068B898B888B8B8B8A8B858B848B878B8A7
:1013860068B898B888B8B8B8A8B858B848B878B897
:1013960068B898B888B8B8B8A8B858B848B878B887
:1013A60068B898B888B8B8B8A8B858B848B878B877
:1013B60068B898B888B8B8B8A8B858B848B878B867
:1013C60068B898B888B8B8B8A8B858B848B878B857
:1013D60068B898B888B8B8B8A8B858B848B878B847
:1013E60068B898B888B8B8B8A8B858B848B878B837
:1013F60068B898B888B8B8B8A8B858B848B878B827
:1014060068B898B888B8B8B8A8B858B848B878B816
:1014160068B898B888B8B8B8A8B858B848B878B806
:1014260068B898B888B8B8B8A8B858B848B878B8F6
:1014360068B898B888B8B8B8A8B858B848B878B8E6
:1014460068B898B888B8B8B8A8B858B848B878B8D6
:1014560068B898B888B8B8B8A8B858B848B878B8C6
:1014660068B898B888B8B8B8A8B858B848B878B8B6
:1014760068B898B888B8B8B8A8B858B848B878B8A6
:1014860068B898B888B8B8B8A8B858B848B878B896
:1014960068B898B888B8B8B8A8B858B848B878B886
:1014A60068B898B888B8B8B8A8B858B848B878B876
:1014B60068B898B888B8B8B8A8B858B848B878B866
:1014C60068B898B888B8B8B8A8B858B848B878B856
:1014D60068B898B888B8B8B8A8B858B848B878B846
:1014E60068B898B888B8B8B8A8B858B848B878B836
:1014F60068B898B888B8B8B8A8B858B848B878B826
:1015060068B898B888B8B8B8A8B858B848B878B815
:1015160068B898B888B8B8B8A8B858B848B878B805
:1015260068B898B888B8B8B8A8B858B848B878B8F5
:1015360068B898B888B8B8B8A8B858B848B878B8E5
:1015460068B898B888B8B8B8A8B858B848B878B8D5
:1015560068B898B888B8B8B8A8B858B848B878B8C5
:1015660068B898B888B8B8B8A8B858B848B878B8B5
:1015760068B898B888B8B8B8A8B858B848B878B8A5
:1015860068B898B888B8B8B8A8B858B848B878B895
:1015960068B898B888B8B8B8A8B858B848B878B885
:1015A60068B898B888B8B8B8A8B858B848B878B875
:1015B60068B898B888B8B8B8A8B858B848B878B865
:1015C60068B898B888B8B8B8A8B858B848B878B855
:1015D60068B898B888B8B8B8A8B858B848B878B845
:1015E60068B898B888B8B8B8A8B858B848B878B835
:1015F60068B898B888B8B8B8A8B858B848B878B825
:1016060068B898B888B8B8B8A8B858B848B878B814
:1016160068B898B888B8B8B8A8B858B848B878B804
:1016260068B898B888B8B8B8A8B858B848B878B8F4
:1016360068B898B888B8B8B8A8B858B848B878B8E4
:1016460068B898B888B8B8B8A8B858B848B878B8D4
:1016560068B898B888B8B8B8A8B858B848B878B8C4
:1016660068B898B888B8B8B8A8B858B848B878B8B4
:1016760068B898B888B8B8B8A8B858B848B878B8A4
:1016860068B898B888B8B8B8A8B858B848B878B894
:1016960068B898B888B8B8B8A8B858B848B878B884
:1016A60068B898B888B8B8B8A8B858B848B878B874
:1016B60068B898B888B8B8B8A8B858B848B878B864
:1016C60068B898B888B8B8B8A8B858B848B878B854
:1016D60068B898B888B8B8B8A8B858B848B878B844
:1016E60068B898B888B8B8B8A8B858B848B878B834
:1016F60068B898B888B8B8B8A8B858B848B878B824
:1017060068B898B888B8B8B8A8B858B848B878B813
:1017160068B898B888B8B8B8A8B858B848B878B803
:1017260068B898B888B8B8B8A8B858B848B878B8F3
:1017360068B898B888B8B8B8A8B858B848B878B8E3
:1017460068B898B888B8B8B8A8B858B848B878B8D3
:1017560068B898B888B8B8B8A8B858B848B878B8C3
:1017660068B898B888B8B8B8A8B858B848B878B8B3
:1017760068B898B888B8B8B8A8B858B848B878B8A3
:1017860068B898B888B8B8B8A8B858B848B878B893
:1017960068B898B888B8B8B8A8B858B848B878B883
:1017A60068B898B888B8B8B8A8B858B848B878B873
:1017B60068B898B888B8B8B8A8B858B848B878B863
:1017C60068B898B888B8B8B8A8B858B848B878B853
:1017D60068B898B888B8B8B8A8B858B848B878B843
:1017E60068B898B888B8B8B8A8B858B848B878B833
:1017F60068B898B888B8B8B8A8B858B848B878B823
:1018060068B898B888B8B8B8A8B858B848B878B812
:1018160068B898B888B8B8B8A8B858B848B878B802
:1018260068B898B888B8B8B8A8B858B848B878B8F2
:1018360068B898B888B8B8B8A8B858B848B878B8E2
:1018460068B898B888B8B8B8A8B858B848B878B8D2
:1018560068B898B888B8B8B8A8B858B848B878B8C2
:1018660068B898B888B8B8B8A8B858B848B878B8B2
:1018760068B898B888B8B8B8A8B858B848B878B8A2
:1018860068B898B888B8B8B8A8B858B848B878B892
:1018960068B898B888B8B8B8A8B858B848B878B882
:1018A60068B898B888B8B8B8A8B858B848B878B872
:1018B60068B898B888B8B8B8A8B858B848B878B862
:1018C60068B898B888B8B8B8A8B858B848B878B852
:1018D60068B898B888B8B8B8A8B858B848B878B842
:1018E60068B898B888B8B8B8A8B858B848B878B832
:1018F60068B898B888B8B8B8A8B858B848B878B822
:1019060068B898B888B8B8B8A8B858B848B878B811
:1019160068B898B888B8B8B8A8B858B848B878B801
:1019260068B898B888B8B8B8A8B858B848B878B8F1
:1019360068B898B888B8B8B8A8B858B848B878B8E1
:1019460068B898B888B8B8B8A8B858B848B878B8D1
:1019560068B898B888B8B8B8A8B858B848B878B8C1
:1019660068B898B888B8B8B8A8B858B848B878B8B1
:1019760068B898B888B8B8B8A8B858B848B878B8A1
:1019860068B898B888B8B8B8A8B858B848B878B891
:1019960068B898B888B8B8B8A8B858B848B878B881
:1019A60068B898B888B8B8B8A8B858B848B878B871
:1019B60068B898B888B8B8B8A8B858B848B878B861
:1019C60068B898B888B8B8B8A8B858B848B878B851
:1019D60068B898B888B8B8B8A8B858B848B878B841
:1019E60068B898B888B8B8B8A8B858B848B878B831
:1019F60068B898B888B8B8B8A8B858B848B878B821
:101A060068B898B888B8B8B8A8B858B848B878B810
:101A160068B898B888B8B8B8A8B858B848B878B800
:101A260068B898B888B8B8B8A8B858B848B878B8F0
:101A360068B898B888B8B8B8A8B858B848B878B8E0
:101A460068B898B888B8B8B8A8B858B848B878B8D0
:101A560068B898B888B8B8B8A8B858B848B878B8C0
:101A660068B898B888B8B8B8A8B858B848B878B8B0
:101A760068B898B888B8B8B8A8B858B848B878B8A0
:101A860068B898B888B8B8B8A8B858B848B878B890
:101A960068B898B888B8B8B8A8B858B848B878B880
:101AA60068B898B888B8B8B8A8B858B848B878B870
:101AB60068B898B888B8B8B8A8B858B848B878B860
:101AC60068B898B888B8B8B8A8B858B848B878B850
:101AD60068B898B888B8B8B8A8B858B848B878B840
:101AE60068B898B888B8B8B8A8B858B848B878B830
:101AF60068B898B888B8B8B8A8B858B848B878B820
:101B060068B898B888B8B8B8A8B858B848B878B80F
:101B160068B898B888B8B8B8A8B858B848B878B8FF
:101B260068B898B888B8B8B8A8B858B848B878B8EF
:101B360068B898B888B8B8B8A8B858B848B878B8DF
:101B460068B898B888B8B8B8A8B858B848B878B8CF
:101B560068B898B888B8B8B8A8B858B848B878B8BF
:101B660068B898B888B8B8B8A8B858B848B878B8AF
:101B760068B898B888B8B8B8A8B858B848B878B89F
:101B860068B898B888B8B8B8A8B858B848B878B88F
:101B960068B898B888B8B8B8A8B858B848B878B87F
:101BA60068B898B888B8B8B8A8B858B848B878B86F
:101BB60068B898B888B8B8B8A8B858B848B878B85F
:101BC60068B898B888B8B8B8A8B858B848B878B84F
:101BD60068B898B888B8B8B8A8B858B848B878B83F
:101BE60068B898B888B8B8B8A8B858B848B878B82F
:101BF60068B898B888B8B8B8A8B858B848B878B81F
:101C060068B898B888B8B8B8A8B858B848B878B80E
:101C160068B898B888B8B8B8A8B858B848B878B8FE
:101C260068B898B888B8B8B8A8B858B848B878B8EE
:101C360068B898B888B8B8B8A8B858B848B878B8DE
:101C460068B898B888B8B8B8A8B858B848B878B8CE
:101C560068B898B888B8B8B8A8B858B848B878B8BE
:101C660068B898B888B8B8B8A8B858B848B878B8AE
:101C760068B898B888B8B8B8A8B858B848B878B89E
:101C860068B898B888B8B8B8A8B858B848B878B88E
:101C960068B898B888B8B8B8A8B858B848B878B87E
:101CA60068B898B888B8B8B8A8B858B848B878B86E
:101CB60068B898B888B8B8B8A8B858B848B878B85E
:101CC60068B898B888B8B8B8A8B858B848B878B84E
:101CD60068B898B888B8B8B8A8B858B848B878B83E
:101CE60068B898B888B8B8B8A8B858B848B878B82E
:101CF60068B898B888B8B8B8A8B858B848B878B81E
:101D060068B898B888B8B8B8A8B858B848B878B80D
:101D160068B898B888B8B8B8A8B858B848B878B8FD
:101D260068B898B888B8B8B8A8B858B848B878B8ED
:101D360068B898B888B8B8B8A8B858B848B878B8DD
:101D460068B898B888B8B8B8A8B858B848B878B8CD
:101D560068B898B888B8B8B8A8B858B848B878B8BD
:101D660068B898B888B8B8B8A8B858B848B878B8AD
:101D760068B898B888B8B8B8A8B858B848B878B89D
:101D860068B898B888B8B8B8A8B858B848B878B88D
:101D960068B898B888B8B8B8A8B858B848B878B87D
:101DA60068B898B888B8B8B8A8B858B848B878B86D
:101DB60068B898B888B8B8B8A8B858B848B878B85D
:101DC60068B898B888B8B8B8A8B858B848B878B84D
:101DD60068B898B888B8B8B8A8B858B848B878B83D
:101DE60068B898B888B8B8B8A8B858B848B878B82D
:101DF60068B898B888B8B8B8A8B858B848B878B81D
:101E060068B898B888B8B8B8A8B858B848B878B80C
:101E160068B898B888B8B8B8A8B858B848B878B8FC
:101E260068B898B888B8B8B8A8B858B848B878B8EC
:101E360068B898B888B8B8B8A8B858B848B878B8DC
:101E460068B898B888B8B8B8A8B858B848B878B8CC
:101E560068B898B888B8B8B8A8B858B848B878B8BC
:101E660068B898B888B8B8B8A8B858B848B878B8AC
:101E760068B898B888B8B8B8A8B858B848B878B89C
:101E860068B898B888B8B8B8A8B858B848B878B88C
:101E960068B898B888B8B8B8A8B858B848B878B87C
:101EA60068B898B888B8B8B8A8B858B848B878B86C
:101EB60068B898B888B8B8B8A8B858B848B878B85C
:101EC60068B898B888B8B8B8A8B858B848B878B84C
:101ED60068B898B888B8B8B8A8B858B848B878B83C
:101EE60068B898B888B8B8B8A8B858B848B878B82C
:101EF60068B898B888B8B8B8A8B858B848B878B81C
:101F060068B898B888B8B8B8A8B858B848B878B80B
:101F160068B898B888B8B8B8A8B858B848B878B8FB
:101F260068B898B888B8B8B8A8B858B848B878B8EB
:101F360068B898B888B8B8B8A8B858B848B878B8DB
:101F460068B898B888B8B8B8A8B858B848B878B8CB
:101F560068B898B888B8B8B8A8B858B848B878B8BB
:101F660068B898B888B8B8B8A8B858B848B878B8AB
:101F760068B898B888B8B8B8A8B858B848B878B89B
:101F860068B898B888B8B8B8A8B858B848B878B88B
:101F960068B898B888B8B8B8A8B858B848B878B87B
:101FA60068B898B888B8B8B8A8B858B848B878B86B
:101FB60068B898B888B8B8B8A8B858B848B878B85B
:101FC60068B898B888B8B8B8A8B858B848B878B84B
:101FD60068B898B888B8B8B8A8B858B848B878B83B
:101FE60068B898B888B8B8B8A8B858B848B878B82B
:101FF60068B898B888B8B8B8A8B858B848B878B81B
:1020060068B898B888B8B8B8A8B858B848B878B80A
:1020160068B898B888B8B8B8A8B858B848B878B8FA
:1020260068B898B888B8B8B8A8B858B848B878B8EA
:1020360068B898B888B8B8B8A8B858B848B878B8DA
:1020460068B898B888B8B8B8A8B858B848B878B8CA
:1020560068B898B888B8B8B8A8B858B848B878B8BA
:1020660068B898B888B8B8B8A8B858B848B878B8AA
:1020760068B898B888B8B8B8A8B858B848B878B89A
:1020860068B898B888B8B8B8A8B858B848B878B88A
:1020960068B898B888B8B8B8A8B858B848B878B87A
:1020A60068B898B888B8B8B8A8B858B848B878B86A
:1020B60068B898B888B8B8B8A8B858B848B878B85A
:1020C60068B898B888B8B8B8A8B858B848B878B84A
:1020D60068B898B888B8B8B8A8B858B848B878B83A
:1020E60068B898B888B8B8B8A8B858B848B878B82A
:1020F60068B898B888B8B8B8A8B858B848B878B81A
:1021060068B898B888B8B8B8A8B858B848B878B809
:1021160068B898B888B8B8B8A8B858B848B878B8F9
:1021260068B898B888B8B8B8A8B858B848B878B8E9
:1021360068B898B888B8B8B8A8B858B848B878B8D9
:1021460068B898B888B8B8B8A8B858B848B878B8C9
:1021560068B898B888B8B8B8A8B858B848B878B8B9
:1021660068B898B888B8B8B8A8B858B848B878B8A9
:1021760068B898B888B8B8B8A8B858B848B878B899
:1021860068B898B888B8B8B8A8B858B848B878B889
:1021960068B898B888B8B8B8A8B858B848B878B879
:1021A60068B898B888B8B8B8A8B858B848B878B869
:1021B60068B898B888B8B8B8A8B858B848B878B859
:1021C60068B898B888B8B8B8A8B858B848B878B849
:1021D60068B898B888B8B8B8A8B858B848B878B839
:1021E60068B898B888B8B8B8A8B858B848B878B829
:1021F60068B898B888B8B8B8A8B858B848B878B819
:1022060068B898B888B8B8B8A8B858B848B878B808
:1022160068B898B888B8B8B8A8B858B848B878B8F8
:1022260068B898B888B8B8B8A8B858B848B878B8E8
:1022360068B898B888B8B8B8A8B858B848B878B8D8
:1022460068B898B888B8B8B8A8B858B848B878B8C8
:1022560068B898B888B8B8B8A8B858B848B878B8B8
:1022660068B898B888B8B8B8A8B858B848B878B8A8
:1022760068B898B888B8B8B8A8B858B848B878B898
:1022860068B898B888B8B8B8A8B858B848B878B888
:1022960068B898B888B8B8B8A8B858B848B878B878
:1022A60068B898B888B8B8B8A8B858B848B878B868
:1022B60068B898B888B8B8B8A8B858B848B878B858
:1022C60068B898B888B8B8B8A8B858B848B878B848
:1022D60068B898B888B8B8B8A8B858B848B878B838
:1022E60068B898B888B8B8B8A8B858B848B878B828
:1022F60068B898B888B8B8B8A8B858B848B878B818
:1023060068B898B888B8B8B8A8B858B848B878B807
:1023160068B898B888B8B8B8A8B858B848B878B8F7
:1023260068B898B888B8B8B8A8B858B848B878B8E7
:1023360068B898B888B8B8B8A8B858B848B878B8D7
:1023460068B898B888B8B8B8A8B858B848B878B8C7
:1023560068B898B888B8B8B8A8B858B848B878B8B7
:1023660068B898B888B8B8B8A8B858B848B878B8A7
:1023760068B898B888B8B8B8A8B858B848B878B897
:1023860068B898B888B8B8B8A8B858B848B878B887
:1023960068B898B888B8B8B8A8B858B848B878B877
:1023A60068B898B888B8B8B8A8B858B848B878B867
:1023B60068B898B888B8B8B8A8B858B848B878B857
:1023C60068B898B888B8B8B8A8B858B848B878B847
:1023D60068B898B888B8B8B8A8B858B848B878B837
:1023E60068B898B888B8B8B8A8B858B848B878B827
:1023F60068B898B888B8B8B8A8B858B848B878B817
:1024060068B898B888B8B8B8A8B858B848B878B806
:1024160068B898B888B8B8B8A8B858B848B878B8F6
:1024260068B898B888B8B8B8A8B858B848B878B8E6
:1024360068B898B888B8B8B8A8B858B848B878B8D6
:1024460068B898B888B8B8B8A8B858B848B878B8C6
:1024560068B898B888B8B8B8A8B858B848B878B8B6
:1024660068B898B888B8B8B8A8B858B848B878B8A6
:1024760068B898B888B8B8B8A8B858B848B878B896
:1024860068B898B888B8B8B8A8B858B848B878B886
:1024960068B898B888B8B8B8A8B858B848B878B876
:1024A60068B898B888B8B8B8A8B858B848B878B866
:1024B60068B898B888B8B8B8A8B858B848B878B856
:1024C60068B898B888B8B8B8A8B858B848B878B846
:1024D60068B898B888B8B8B8A8B858B848B878B836
:1024E60068B898B888B8B8B8A8B858B848B878B826
:1024F60068B898B888B8B8B8A8B858B848B878B816
:1025060068B898B888B8B8B8A8B858B848B878B805
:1025160068B898B888B8B8B8A8B858B848B878B8F5
:1025260068B898B888B8B8B8A8B858B848B878B8E5
:1025360068B898B888B8B8B8A8B858B848B878B8D5
:1025460068B898B888B8B8B8A8B858B848B878B8C5
:1025560068B898B888B8B8B8A8B858B848B878B8B5
:1025660068B898B888B8B8B8A8B858B848B878B8A5
:1025760068B898B888B8B8B8A8B858B848B878B895
:1025860068B898B888B8B8B8A8B858B848B878B885
:1025960068B898B888B8B8B8A8B858B848B878B875
:1025A60068B898B888B8B8B8A8B858B848B878B865
:1025B60068B898B888B8B8B8A8B858B848B878B855
:1025C60068B898B888B8B8B8A8B858B848B878B845
:1025D60068B898B888B8B8B8A8B858B848B878B835
:1025E60068B898B888B8B8B8A8B858B848B878B825
:1025F60068B898B888B8B8B8A8B858B848B878B815
:1026060068B898B888B8B8B8A8B858B848B878B804
:1026160068B898B888B8B8B8A8B858B848B878B8F4
:1026260068B898B888B8B8B8A8B858B848B878B8E4
:1026360068B898B888B8B8B8A8B858B848B878B8D4
:1026460068B898B888B8B8B8A8B858B848B878B8C4
:1026560068B898B888B8B8B8A8B858B848B878B8B4
:1026660068B898B888B8B8B8A8B858B848B878B8A4
:1026760068B898B888B8B8B8A8B858B848B878B894
:1026860068B898B888B8B8B8A8B858B848B878B884
:1026960068B898B888B8B8B8A8B858B848B878B874
:1026A60068B898B888B8B8B8A8B858B848B878B864
:1026B60068B898B888B8B8B8A8B858B848B878B854
:1026C60068B898B888B8B8B8A8B858B848B878B844
:1026D60068B898B888B8B8B8A8B858B848B878B834
:1026E60068B898B888B8B8B8A8B858B848B878B824
:1026F60068B898B888B8B8B8A8B858B848B878B814
:1027060068B898B888B8B8B8A8B858B848B878B803
:1027160068B898B888B8B8B8A8B858B848B878B8F3
:1027260068B898B888B8B8B8A8B858B848B878B8E3
:1027360068B898B888B8B8B8A8B858B848B878B8D3
:1027460068B898B888B8B8B8A8B858B848B878B8C3
:1027560068B898B888B8B8B8A8B858B848B878B8B3
:1027660068B898B888B8B8B8A8B858B848B878B8A3
:1027760068B898B888B8B8B8A8B858B848B878B893
:1027860068B898B888B8B8B8A8B858B848B878B883
:1027960068B898B888B8B8B8A8B858B848B878B873
:1027A60068B898B888B8B8B8A8B858B848B878B863
:1027B60068B898B888B8B8B8A8B858B848B878B853
:1027C60068B898B888B8B8B8A8B858B848B878B843
:1027D60068B898B888B8B8B8A8B858B848B878B833
:1027E60068B898B888B8B8B8A8B858B848B878B823
:1027F60068B898B888B8B8B8A8B858B848B878B813
:1028060068B898B888B8B8B8A8B858B848B878B802
:1028160068B898B888B8B8B8A8B858B848B878B8F2
:1028260068B898B888B8B8B8A8B858B848B878B8E2
:1028360068B898B888B8B8B8A8B858B848B878B8D2
:1028460068B898B888B8B8B8A8B858B848B878B8C2
:1028560068B898B888B8B8B8A8B858B848B878B8B2
:1028660068B898B888B8B8B8A8B858B848B878B8A2
:1028760068B898B888B8B8B8A8B858B848B878B892
:1028860068B898B888B8B8B8A8B858B848B878B882
:1028960068B898B888B8B8B8A8B858B848B878B872
:1028A60068B898B888B8B8B8A8B858B848B878B862
:1028B60068B898B888B8B8B8A8B858B848B878B852
:1028C60068B898B888B8B8B8A8B858B848B878B842
:1028D60068B898B888B8B8B8A8B858B848B878B832
:1028E60068B898B888B8B8B8A8B858B848B878B822
:1028F60068B898B888B8B8B8A8B858B848B878B812
:1029060068B898B888B8B8B8A8B858B848B878B801
:1029160068B898B888B8B8B8A8B858B848B878B8F1
:1029260068B898B888B8B8B8A8B858B848B878B8E1
:1029360068B898B888B8B8B8A8B858B848B878B8D1
:1029460068B898B888B8B8B8A8B858B848B878B8C1
:1029560068B898B888B8B8B8A8B858B848B878B8B1
:1029660068B898B888B8B8B8A8B858B848B878B8A1
:1029760068B898B888B8B8B8A8B858B848B878B891
:1029860068B898B888B8B8B8A8B858B848B878B881
:1029960068B898B888B8B8B8A8B858B848B878B871
:1029A60068B898B888B8B8B8A8B858B848B878B861
:1029B60068B898B888B8B8B8A8B858B848B878B851
:1029C60068B898B888B8B8B8A8B858B848B878B841
:1029D60068B898B888B8B8B8A8B858B848B878B831
:1029E60068B898B888B8B8B8A8B858B848B878B821
:1029F60068B898B888B8B8B8A8B858B848B878B811
:102A060068B898B888B8B8B8A8B858B848B878B800
:102A160068B898B888B8B8B8A8B858B848B878B8F0
:102A260068B898B888B8B8B8A8B858B848B878B8E0
:102A360068B898B888B8B8B8A8B858B848B878B8D0
:102A460068B898B888B8B8B8A8B858B848B878B8C0
:102A560068B898B888B8B8B8A8B858B848B878B8B0
:102A660068B898B888B8B8B8A8B858B848B878B8A0
:102A760068B898B888B8B8B8A8B858B848B878B890
:102A860068B898B888B8B8B8A8B858B848B878B880
:102A960068B898B888B8B8B8A8B858B848B878B870
:102AA60068B898B888B8B8B8A8B858B848B878B860
:102AB60068B898B888B8B8B8A8B858B848B878B850
:102AC60068B898B888B8B8B8A8B858B848B878B840
:102AD60068B898B888B8B8B8A8B858B848B878B830
:102AE60068B898B888B8B8B8A8B858B848B878B820
:102AF60068B898B888B8B8B8A8B858B848B878B810
:102B060068B898B888B8B8B8A8B858B848B878B8FF
:102B160068B898B888B8B8B8A8B858B848B878B8EF
:102B260068B898B888B8B8B8A8B858B848B878B8DF
:102B360068B898B888B8B8B8A8B858B848B878B8CF
:102B460068B898B888B8B8B8A8B858B848B878B8BF
:102B560068B898B888B8B8B8A8B858B848B878B8AF
:102B660068B898B888B8B8B8A8B858B848B878B89F
:102B760068B898B888B8B8B8A8B858B848B878B88F
:102B860068B898B888B8B8B8A8B858B848B878B87F
:102B960068B898B888B8B8B8A8B858B848B878B86F
:102BA60068B898B888B8B8B8A8B858B848B878B85F
:102BB60068B898B888B8B8B8A8B858B848B878B84F
:102BC60068B898B888B8B8B8A8B858B848B878B83F
:102BD60068B898B888B8B8B8A8B858B848B878B82F
:102BE60068B898B888B8B8B8A8B858B848B878B81F
:102BF60068B898B888B8B8B8A8B858B848B878B80F
:102C060068B898B888B8B8B8A8B858B848B878B8FE
:102C160068B898B888B8B8B8A8B858B848B878B8EE
:102C260068B898B888B8B8B8A8B858B848B878B8DE
:102C360068B898B888B8B8B8A8B858B848B878B8CE
:102C460068B898B888B8B8B8A8B858B848B878B8BE
:102C560068B898B888B8B8B8A8B858B848B878B8AE
:102C660068B898B888B8B8B8A8B858B848B878B89E
:102C760068B898B888B8B8B8A8B858B848B878B88E
:102C860068B898B888B8B8B8A8B858B848B878B87E
:102C960068B898B888B8B8B8A8B858B848B878B86E
:102CA60068B898B888B8B8B8A8B858B848B878B85E
:102CB60068B898B888B8B8B8A8B858B848B878B84E
:102CC60068B898B888B8B8B8A8B858B848B878B83E
:102CD60068B898B888B8B8B8A8B858B848B878B82E
:102CE60068B898B888B8B8B8A8B858B848B878B81E
:102CF60068B898B888B8B8B8A8B858B848B878B80E
:102D060068B898B888B8B8B8A8B858B848B878B8FD
:102D160068B898B888B8B8B8A8B858B848B878B8ED
:102D260068B898B888B8B8B8A8B858B848B878B8DD
:102D360068B898B888B8B8B8A8B858B848B878B8CD
:102D460068B898B888B8B8B8A8B858B848B878B8BD
:102D560068B898B888B8B8B8A8B858B848B878B8AD
:102D660068B898B888B8B8B8A8B858B848B878B89D
:102D760068B898B888B8B8B8A8B858B848B878B88D
:102D860068B898B888B8B8B8A8B858B848B878B87D
:102D960068B898B888B8B8B8A8B858B848B878B86D
:102DA60068B898B888B8B8B8A8B858B848B878B85D
:102DB60068B898B888B8B8B8A8B858B848B878B84D
:102DC60068B898B888B8B8B8A8B858B848B878B83D
:102DD60068B898B888B8B8B8A8B858B848B878B82D
:102DE60068B898B888B8B8B8A8B858B848B878B81D
:102DF60068B898B888B8B8B8A8B858B848B878B80D
:102E060068B898B888B8B8B8A8B858B848B878B8FC
:102E160068B898B888B8B8B8A8B858B848B878B8EC
:102E260068B898B888B8B8B8A8B858B848B878B8DC
:102E360068B898B888B8B8B8A8B858B848B878B8CC
:102E460068B898B888B8B8B8A8B858B848B878B8BC
:102E560068B898B888B8B8B8A8B858B848B878B8AC
:102E660068B898B888B8B8B8A8B858B848B878B89C
:102E760068B898B888B8B8B8A8B858B848B878B88C
:102E860068B898B888B8B8B8A8B858B848B878B87C
:102E960068B898B888B8B8B8A8B858B848B878B86C
:102EA60068B898B888B8B8B8A8B858B848B878B85C
:102EB60068B898B888B8B8B8A8B858B848B878B84C
:102EC60068B898B888B8B8B8A8B858B848B878B83C
:102ED60068B898B888B8B8B8A8B858B848B878B82C
:102EE60068B898B888B8B8B8A8B858B848B878B81C
:102EF60068B898B888B8B8B8A8B858B848B878B80C
:102F060068B898B888B8B8B8A8B858B848B878B8FB
:102F160068B898B888B8B8B8A8B858B848B878B8EB
:102F260068B898B888B8B8B8A8B858B848B878B8DB
:102F360068B898B888B8B8B8A8B858B848B878B8CB
:102F460068B898B888B8B8B8A8B858B848B878B8BB
:102F560068B898B888B8B8B8A8B858B848B878B8AB
:102F660068B898B888B8B8B8A8B858B848B878B89B
:102F760068B898B888B8B8B8A8B858B848B878B88B
:102F860068B898B888B8B8B8A8B858B848B878B87B
:102F960068B898B888B8B8B8A8B858B848B878B86B
:102FA60068B898B888B8B8B8A8B858B848B878B85B
:102FB60068B898B888B8B8B8A8B858B848B878B84B
:102FC60068B898B888B8B8B8A8B858B848B878B83B
:102FD60068B898B888B8B8B8A8B858B848B878B82B
:102FE60068B898B888B8B8B8A8B858B848B878B81B
:102FF60068B898B888B8B8B8A8B858B848B878B80B
:1030060068B898B888B8B8B8A8B858B848B878B8FA
:1030160068B898B888B8B8B8A8B858B848B878B8EA
:1030260068B898B888B8B8B8A8B858B848B878B8DA
:1030360068B898B888B8B8B8A8B858B848B878B8CA
:1030460068B898B888B8B8B8A8B858B848B878B8BA
:1030560068B898B888B8B8B8A8B858B848B878B8AA
:1030660068B898B888B8B8B8A8B858B848B878B89A
:1030760068B898B888B8B8B8A8B858B848B878B88A
:1030860068B898B888B8B8B8A8B858B848B878B87A
:1030960068B898B888B8B8B8A8B858B848B878B86A
:1030A60068B898B888B8B8B8A8B858B848B878B85A
:1030B60068B898B888B8B8B8A8B858B848B878B84A
:1030C60068B898B888B8B8B8A8B858B848B878B83A
:1030D60068B898B888B8B8B8A8B858B848B878B82A
:1030E60068B898B888B8B8B8A8B858B848B878B81A
:1030F60068B898B888B8B8B8A8B858B848B878B80A
:1031060068B898B888B8B8B8A8B858B848B878B8F9
:1031160068B898B888B8B8B8A8B858B848B878B8E9
:1031260068B898B888B8B8B8A8B858B848B878B8D9
:1031360068B898B888B8B8B8A8B858B848B878B8C9
:1031460068B898B888B8B8B8A8B858B848B878B8B9
:1031560068B898B888B8B8B8A8B858B848B878B8A9
:1031660068B898B888B8B8B8A8B858B848B878B899
:1031760068B898B888B8B8B8A8B858B848B878B889
:1031860068B898B888B8B8B8A8B858B848B878B879
:1031960068B898B888B8B8B8A8B858B848B878B869
:1031A60068B898B888B8B8B8A8B858B848B878B859
:1031B60068B898B888B8B8B8A8B858B848B878B849
:1031C60068B898B888B8B8B8A8B858B848B878B839
:1031D60068B898B888B8B8B8A8B858B848B878B829
:1031E60068B898B888B8B8B8A8B858B848B878B819
:1031F60068B898B888B8B8B8A8B858B848B878B809
:1032060068B898B888B8B8B8A8B858B848B878B8F8
:1032160068B898B888B8B8B8A8B858B848B878B8E8
:1032260068B898B888B8B8B8A8B858B848B878B8D8
:1032360068B898B888B8B8B8A8B858B848B878B8C8
:1032460068B898B888B8B8B8A8B858B848B878B8B8
:1032560068B898B888B8B8B8A8B858B848B878B8A8
:1032660068B898B888B8B8B8A8B858B848B878B898
:1032760068B898B888B8B8B8A8B858B848B878B888
:1032860068B898B888B8B8B8A8B858B848B878B878
:1032960068B898B888B8B8B8A8B858B848B878B868
:1032A60068B898B888B8B8B8A8B858B848B878B858
:1032B60068B898B888B8B8B8A8B858B848B878B848
:1032C60068B898B888B8B8B8A8B858B848B878B838
:1032D60068B898B888B8B8B8A8B858B848B878B828
:1032E60068B898B888B8B8B8A8B858B848B878B818
:1032F60068B898B888B8B8B8A8B858B848B878B808
:1033060068B898B888B8B8B8A8B858B848B878B8F7
:1033160068B898B888B8B8B8A8B858B848B878B8E7
:1033260068B898B888B8B8B8A8B858B848B878B8D7
:1033360068B898B888B8B8B8A8B858B848B878B8C7
:1033460068B898B888B8B8B8A8B858B848B878B8B7
:1033560068B898B888B8B8B8A8B858B848B878B8A7
:1033660068B898B888B8B8B8A8B858B848B878B897
:1033760068B898B888B8B8B8A8B858B848B878B887
:1033860068B898B888B8B8B8A8B858B848B878B877
:1033960068B898B888B8B8B8A8B858B848B878B867
:1033A60068B898B888B8B8B8A8B858B848B878B857
:1033B60068B898B888B8B8B8A8B858B848B878B847
:1033C60068B898B888B8B8B8A8B858B848B878B837
:1033D60068B898B888B8B8B8A8B858B848B878B827
:1033E60068B898B888B8B8B8A8B858B848B878B817
:1033F60068B898B888B8B8B8A8B858B848B878B807
:1034060068B898B888B8B8B8A8B858B848B878B8F6
:1034160068B898B888B8B8B8A8B858B848B878B8E6
:1034260068B898B888B8B8B8A8B858B848B878B8D6
:1034360068B898B888B8B8B8A8B858B848B878B8C6
:1034460068B898B888B8B8B8A8B858B848B878B8B6
:1034560068B898B888B8B8B8A8B858B848B878B8A6
:1034660068B898B888B8B8B8A8B858B848B878B896
:1034760068B898B888B8B8B8A8B858B848B878B886
:1034860068B898B888B8B8B8A8B858B848B878B876
:1034960068B898B888B8B8B8A8B858B848B878B866
:1034A60068B898B888B8B8B8A8B858B848B878B856
:1034B60068B898B888B8B8B8A8B858B848B878B846
:1034C60068B898B888B8B8B8A8B858B848B878B836
:1034D60068B898B888B8B8B8A8B858B848B878B826
:1034E60068B898B888B8B8B8A8B858B848B878B816
:1034F60068B898B888B8B8B8A8B858B848B878B806
:1035060068B898B888B8B8B8A8B858B848B878B8F5
:1035160068B898B888B8B8B8A8B858B848B878B8E5
:1035260068B898B888B8B8B8A8B858B848B878B8D5
:1035360068B898B888B8B8B8A8B858B848B878B8C5
:1035460068B898B888B8B8B8A8B858B848B878B8B5
:1035560068B898B888B8B8B8A8B858B848B878B8A5
:1035660068B898B888B8B8B8A8B858B848B878B895
:1035760068B898B888B8B8B8A8B858B848B878B885
:1035860068B898B888B8B8B8A8B858B848B878B875
:1035960068B898B888B8B8B8A8B858B848B878B865
:1035A60068B898B888B8B8B8A8B858B848B878B855
:1035B60068B898B888B8B8B8A8B858B848B878B845
:1035C60068B898B888B8B8B8A8B858B848B878B835
:1035D60068B898B888B8B8B8A8B858B848B878B825
:1035E60068B898B888B8B8B8A8B858B848B878B815
:1035F60068B898B888B8B8B8A8B858B848B878B805
:1036060068B898B888B8B8B8A8B858B848B878B8F4
:1036160068B898B888B8B8B8A8B858B848B878B8E4
:1036260068B898B888B8B8B8A8B858B848B878B8D4
:1036360068B898B888B8B8B8A8B858B848B878B8C4
:1036460068B898B888B8B8B8A8B858B848B878B8B4
:1036560068B898B888B8B8B8A8B858B848B878B8A4
:1036660068B898B888B8B8B8A8B858B848B878B894
:1036760068B898B888B8B8B8A8B858B848B878B884
:1036860068B898B888B8B8B8A8B858B848B878B874
:1036960068B898B888B8B8B8A8B858B848B878B864
:1036A60068B898B888B8B8B8A8B858B848B878B854
:1036B60068B898B888B8B8B8A8B858B848B878B844
:1036C60068B898B888B8B8B8A8B858B848B878B834
:1036D60068B898B888B8B8B8A8B858B848B878B824
:1036E60068B898B888B8B8B8A8B858B848B878B814
:1036F60068B898B888B8B8B8A8B858B848B878B804
:1037060068B898B888B8B8B8A8B858B848B878B8F3
:1037160068B898B888B8B8B8A8B858B848B878B8E3
:1037260068B898B888B8B8B8A8B858B848B878B8D3
:1037360068B898B888B8B8B8A8B858B848B878B8C3
:1037460068B898B888B8B8B8A8B858B848B878B8B3
:1037560068B898B888B8B8B8A8B858B848B878B8A3
:1037660068B898B888B8B8B8A8B858B848B878B893
:1037760068B898B888B8B8B8A8B858B848B878B883
:1037860068B898B888B8B8B8A8B858B848B878B873
:1037960068B898B888B8B8B8A8B858B848B878B863
:1037A60068B898B888B8B8B8A8B858B848B878B853
:1037B60068B898B888B8B8B8A8B858B848B878B843
:1037C60068B898B888B8B8B8A8B858B848B878B833
:1037D60068B898B888B8B8B8A8B858B848B878B823
:1037E60068B898B888B8B8B8A8B858B848B878B813
:1037F60068B898B888B8B8B8A8B858B848B878B803
:1038060068B898B888B8B8B8A8B858B848B878B8F2
:1038160068B898B888B8B8B8A8B858B848B878B8E2
:1038260068B898B888B8B8B8A8B858B848B878B8D2
:1038360068B898B888B8B8B8A8B858B848B878B8C2
:1038460068B898B888B8B8B8A8B858B848B878B8B2
:1038560068B898B888B8B8B8A8B858B848B878B8A2
:1038660068B898B888B8B8B8A8B858B848B878B892
:1038760068B898B888B8B8B8A8B858B848B878B882
:1038860068B898B888B8B8B8A8B858B848B878B872
:1038960068B898B888B8B8B8A8B858B848B878B862
:1038A60068B898B888B8B8B8A8B858B848B878B852
:1038B60068B898B888B8B8B8A8B858B848B878B842
:1038C60068B898B888B8B8B8A8B858B848B878B832
:1038D60068B898B888B8B8B8A8B858B848B878B822
:1038E60068B898B888B8B8B8A8B858B848B878B812
:1038F60068B898B888B8B8B8A8B858B848B878B802
:1039060068B898B888B8B8B8A8B858B848B878B8F1
:1039160068B898B888B8B8B8A8B858B848B878B8E1
:1039260068B898B888B8B8B8A8B858B848B878B8D1
:1039360068B898B888B8B8B8A8B858B848B878B8C1
:1039460068B898B888B8B8B8A8B858B848B878B8B1
:1039560068B898B888B8B8B8A8B858B848B878B8A1
:1039660068B898B888B8B8B8A8B858B848B878B891
:1039760068B898B888B8B8B8A8B858B848B878B881
:1039860068B898B888B8B8B8A8B858B848B878B871
:1039960068B898B888B8B8B8A8B858B848B878B861
:1039A60068B898B888B8B8B8A8B858B848B878B851
:1039B60068B898B888B8B8B8A8B858B848B878B841
:1039C60068B898B888B8B8B8A8B858B848B878B831
:1039D60068B898B888B8B8B8A8B858B848B878B821
:1039E60068B898B888B8B8B8A8B858B848B878B811
:1039F60068B898B888B8B8B8A8B858B848B878B801
:103A060068B898B888B8B8B8A8B858B848B878B8F0
:103A160068B898B888B8B8B8A8B858B848B878B8E0
:103A260068B898B888B8B8B8A8B858B848B878B8D0
:103A360068B898B888B8B8B8A8B858B848B878B8C0
:103A460068B898B888B8B8B8A8B858B848B878B8B0
:103A560068B898B888B8B8B8A8B858B848B878B8A0
:103A660068B898B888B8B8B8A8B858B848B878B890
:103A760068B898B888B8B8B8A8B858B848B878B880
:103A860068B898B888B8B8B8A8B858B848B878B870
:103A960068B898B888B8B8B8A8B858B848B878B860
:103AA60068B898B888B8B8B8A8B858B848B878B850
:103AB60068B898B888B8B8B8A8B858B848B878B840
:103AC60068B898B888B8B8B8A8B858B848B878B830
:103AD60068B898B888B8B8B8A8B858B848B878B820
:103AE60068B898B888B8B8B8A8B858B848B878B810
:103AF60068B898B888B8B8B8A8B858B848B878B800
:103B060068B898B888B8B8B8A8B858B848B878B8EF
:103B160068B898B888B8B8B8A8B858B848B878B8DF
:103B260068B898B888B8B8B8A8B858B848B878B8CF
:103B360068B898B888B8B8B8A8B858B848B878B8BF
:103B460068B898B888B8B8B8A8B858B848B878B8AF
:103B560068B898B888B8B8B8A8B858B848B878B89F
:103B660068B898B888B8B8B8A8B858B848B878B88F
:103B760068B898B888B8B8B8A8B858B848B878B87F
:103B860068B898B888B8B8B8A8B858B848B878B86F
:103B960068B898B888B8B8B8A8B858B848B878B85F
:103BA60068B898B888B8B8B8A8B858B848B878B84F
:103BB60068B898B888B8B8B8A8B858B848B878B83F
:103BC60068B898B888B8B8B8A8B858B848B878B82F
:103BD60068B898B888B8B8B8A8B858B848B878B81F
:103BE60068B898B888B8B8B8A8B858B848B878B80F
:103BF60068B898B888B8B8B8A8B858B848B878B8FF
:103C060068B898B888B8B8B8A8B858B848B878B8EE
:103C160068B898B888B8B8B8A8B858B848B878B8DE
:103C260068B898B888B8B8B8A8B858B848B878B8CE
:103C360068B898B888B8B8B8A8B858B848B878B8BE
:103C460068B898B888B8B8B8A8B858B848B878B8AE
:103C560068B898B888B8B8B8A8B858B848B878B89E
:103C660068B898B888B8B8B8A8B858B848B878B88E
:103C760068B898B888B8B8B8A8B858B848B878B87E
:103C860068B898B888B8B8B8A8B858B848B878B86E
:103C960068B898B888B8B8B8A8B858B848B878B85E
:103CA60068B898B888B8B8B8A8B858B848B878B84E
:103CB60068B898B888B8B8B8A8B858B848B878B83E
:103CC60068B898B888B8B8B8A8B858B848B878B82E
:103CD60068B898B888B8B8B8A8B858B848B878B81E
:103CE60068B898B888B8B8B8A8B858B848B878B80E
:103CF60068B898B888B8B8B8A8B858B848B878B8FE
:103D060068B898B888B8B8B8A8B858B848B878B8ED
:103D160068B898B888B8B8B8A8B858B848B878B8DD
:103D260068B898B888B8B8B8A8B858B848B878B8CD
:103D360068B898B888B8B8B8A8B858B848B878B8BD
:103D460068B898B888B8B8B8A8B858B848B878B8AD
:103D560068B898B888B8B8B8A8B858B848B878B89D
:103D660068B898B888B8B8B8A8B858B848B878B88D
:103D760068B898B888B8B8B8A8B858B848B878B87D
:103D860068B898B888B8B8B8A8B858B848B878B86D
:103D960068B898B888B8B8B8A8B858B848B878B85D
:103DA60068B898B888B8B8B8A8B858B848B878B84D
:103DB60068B898B888B8B8B8A8B858B848B878B83D
:103DC60068B898B888B8B8B8A8B858B848B878B82D
:103DD60068B898B888B8B8B8A8B858B848B878B81D
:103DE60068B898B888B8B8B8A8B858B848B878B80D
:103DF60068B898B888B8B8B8A8B858B848B878B8FD
:103E060068B898B888B8B8B8A8B858B848B878B8EC
:103E160068B898B888B8B8B8A8B858B848B878B8DC
:103E260068B898B888B8B8B8A8B858B848B878B8CC
:103E360068B898B888B8B8B8A8B858B848B878B8BC
:103E460068B898B888B8B8B8A8B858B848B878B8AC
:103E560068B898B888B8B8B8A8B858B848B878B89C
:103E660068B898B888B8B8B8A8B858B848B878B88C
:103E760068B898B888B8B8B8A8B858B848B878B87C
:103E860068B898B888B8B8B8A8B858B848B878B86C
:103E960068B898B888B8B8B8A8B858B848B878B85C
:103EA60068B898B888B8B8B8A8B858B848B878B84C
:103EB60068B898B888B8B8B8A8B858B848B878B83C
:103EC60068B898B888B8B8B8A8B858B848B878B82C
:103ED60068B898B888B8B8B8A8B858B848B878B81C
:103EE60068B898B888B8B8B8A8B858B848B878B80C
:103EF60068B898B888B8B8B8A8B858B848B878B8FC
:103F060068B898B888B8B8B8A8B858B848B878B8EB
:103F160068B898B888B8B8B8A8B858B848B878B8DB
:103F260068B898B888B8B8B8A8B858B848B878B8CB
:103F360068B898B888B8B8B8A8B858B848B878B8BB
:103F460068B898B888B8B8B8A8B858B848B878B8AB
:103F560068B898B888B8B8B8A8B858B848B878B89B
:103F660068B898B888B8B8B8A8B858B848B878B88B
:103F760068B898B888B8B8B8A8B858B848B878B87B
:103F860068B898B888B8B8B8A8B858B848B878B86B
:103F960068B898B888B8B8B8A8B858B848B878B85B
:103FA60068B898B888B8B8B8A8B858B848B878B84B
:103FB60068B898B888B8B8B8A8B858B848B878B83B
:103FC60068B898B888B8B8B8A8B858B848B878B82B
:103FD60068B898B888B8B8B8A8B858B848B878B81B
:103FE60068B898B888B8B8B8A8B858B848B878B80B
:103FF60068B898B888B8B8B8A8B858B848B878B8FB
:1040060068B898B888B8B8B8A8B858B848B878B8EA
:1040160068B898B888B8B8B8A8B858B848B878B8DA
:1040260068B898B888B8B8B8A8B858B848B878B8CA
:1040360068B898B888B8B8B8A8B858B848B878B8BA
:1040460068B898B888B8B8B8A8B858B848B878B8AA
:1040560068B898B888B8B8B8A8B858B848B878B89A
:1040660068B898B888B8B8B8A8B858B848B878B88A
:1040760068B898B888B8B8B8A8B858B848B878B87A
:1040860068B898B888B8B8B8A8B858B848B878B86A
:1040960068B898B888B8B8B8A8B858B848B878B85A
:1040A60068B898B888B8B8B8A8B858B848B878B84A
:1040B60068B898B888B8B8B8A8B858B848B878B83A
:1040C60068B898B888B8B8B8A8B858B848B878B82A
:1040D60068B898B888B8B8B8A8B858B848B878B81A
:1040E60068B898B888B8B8B8A8B858B848B878B80A
:1040F60068B898B888B8B8B8A8B858B848B878B8FA
:1041060068B898B888B8B8B8A8B858B848B878B8E9
:1041160068B898B888B8B8B8A8B858B848B878B8D9
:1041260068B898B888B8B8B8A8B858B848B878B8C9
:1041360068B898B888B8B8B8A8B858B848B878B8B9
:1041460068B898B888B8B8B8A8B858B848B878B8A9
:1041560068B898B888B8B8B8A8B858B848B878B899
:1041660068B898B888B8B8B8A8B858B848B878B889
:1041760068B898B888B8B8B8A8B858B848B878B879
:1041860068B898B888B8B8B8A8B858B848B878B869
:1041960068B898B888B8B8B8A8B858B848B878B859
:1041A60068B898B888B8B8B8A8B858B848B878B849
:1041B60068B898B888B8B8B8A8B858B848B878B839
:1041C60068B898B888B8B8B8A8B858B848B878B829
:1041D60068B898B888B8B8B8A8B858B848B878B819
:1041E60068B898B888B8B8B8A8B858B848B878B809
:1041F60068B898B888B8B8B8A8B858B848B878B8F9
:1042060068B898B888B8B8B8A8B858B848B878B8E8
:1042160068B898B888B8B8B8A8B858B848B878B8D8
:1042260068B898B888B8B8B8A8B858B848B878B8C8
:1042360068B898B888B8B8B8A8B858B848B878B8B8
:1042460068B898B888B8B8B8A8B858B848B878B8A8
:1042560068B898B888B8B8B8A8B858B848B878B898
:1042660068B898B888B8B8B8A8B858B848B878B888
:1042760068B898B888B8B8B8A8B858B848B878B878
:1042860068B898B888B8B8B8A8B858B848B878B868
:1042960068B898B888B8B8B8A8B858B848B878B858
:1042A60068B898B888B8B8B8A8B858B848B878B848
:1042B60068B898B888B8B8B8A8B858B848B878B838
:1042C60068B898B888B8B8B8A8B858B848B878B828
:1042D60068B898B888B8B8B8A8B858B848B878B818
:1042E60068B898B888B8B8B8A8B858B848B878B808
:1042F60068B898B888B8B8B8A8B858B848B878B8F8
:1043060068B898B888B8B8B8A8B858B848B878B8E7
:1043160068B898B888B8B8B8A8B858B848B878B8D7
:1043260068B898B888B8B8B8A8B858B848B878B8C7
:1043360068B898B888B8B8B8A8B858B848B878B8B7
:1043460068B898B888B8B8B8A8B858B848B878B8A7
:1043560068B898B888B8B8B8A8B858B848B878B897
:1043660068B898B888B8B8B8A8B858B848B878B887
:1043760068B898B888B8B8B8A8B858B848B878B877
:1043860068B898B888B8B8B8A8B858B848B878B867
:1043960068B898B888B8B8B8A8B858B848B878B857
:1043A60068B898B888B8B8B8A8B858B848B878B847
:1043B60068B898B888B8B8B8A8B858B848B878B837
:1043C60068B898B888B8B8B8A8B858B848B878B827
:1043D60068B898B888B8B8B8A8B858B848B878B817
:1043E60068B898B888B8B8B8A8B858B848B878B807
:1043F60068B898B888B8B8B8A8B858B848B878B8F7
:1044060068B898B888B8B8B8A8B858B848B878B8E6
:1044160068B898B888B8B8B8A8B858B848B878B8D6
:1044260068B898B888B8B8B8A8B858B848B878B8C6
:1044360068B898B888B8B8B8A8B858B848B878B8B6
:1044460068B898B888B8B8B8A8B858B848B878B8A6
:1044560068B898B888B8B8B8A8B858B848B878B896
:1044660068B898B888B8B8B8A8B858B848B878B886
:1044760068B898B888B8B8B8A8B858B848B878B876
:1044860068B898B888B8B8B8A8B858B848B878B866
:1044960068B898B888B8B8B8A8B858B848B878B856
:1044A60068B898B888B8B8B8A8B858B848B878B846
:1044B60068B898B888B8B8B8A8B858B848B878B836
:1044C60068B898B888B8B8B8A8B858B848B878B826
:1044D60068B898B888B8B8B8A8B858B848B878B816
:1044E60068B898B888B8B8B8A8B858B848B878B806
:1044F60068B898B888B8B8B8A8B858B848B878B8F6
:1045060068B898B888B8B8B8A8B858B848B878B8E5
:1045160068B898B888B8B8B8A8B858B848B878B8D5
:1045260068B898B888B8B8B8A8B858B848B878B8C5
:1045360068B898B888B8B8B8A8B858B848B878B8B5
:1045460068B898B888B8B8B8A8B858B848B878B8A5
:1045560068B898B888B8B8B8A8B858B848B878B895
:1045660068B898B888B8B8B8A8B858B848B878B885
:1045760068B898B888B8B8B8A8B858B848B878B875
:1045860068B898B888B8B8B8A8B858B848B878B865
:1045960068B898B888B8B8B8A8B858B848B878B855
:1045A60068B898B888B8B8B8A8B858B848B878B845
:1045B60068B898B888B8B8B8A8B858B848B878B835
:1045C60068B898B888B8B8B8A8B858B848B878B825
:1045D60068B898B888B8B8B8A8B858B848B878B815
:1045E60068B898B888B8B8B8A8B858B848B878B805
:1045F60068B898B888B8B8B8A8B858B848B878B8F5
:1046060068B898B888B8B8B8A8B858B848B878B8E4
:1046160068B898B888B8B8B8A8B858B848B878B8D4
:1046260068B898B888B8B8B8A8B858B848B878B8C4
:1046360068B898B888B8B8B8A8B858B848B878B8B4
:1046460068B898B888B8B8B8A8B858B848B878B8A4
:1046560068B898B888B8B8B8A8B858B848B878B894
:1046660068B898B888B8B8B8A8B858B848B878B884
:1046760068B898B888B8B8B8A8B858B848B878B874
:1046860068B898B888B8B8B8A8B858B848B878B864
:1046960068B898B888B8B8B8A8B858B848B878B854
:1046A60068B898B888B8B8B8A8B858B848B878B844
:1046B60068B898B888B8B8B8A8B858B848B878B834
:1046C60068B898B888B8B8B8A8B858B848B878B824
:1046D60068B898B888B8B8B8A8B858B848B878B814
:1046E60068B898B888B8B8B8A8B858B848B878B804
:1046F60068B898B888B8B8B8A8B858B848B878B8F4
:1047060068B898B888B8B8B8A8B858B848B878B8E3
:1047160068B898B888B8B8B8A8B858B848B878B8D3
:1047260068B898B888B8B8B8A8B858B848B878B8C3
:1047360068B898B888B8B8B8A8B858B848B878B8B3
:1047460068B898B888B8B8B8A8B858B848B878B8A3
:1047560068B898B888B8B8B8A8B858B848B878B893
:1047660068B898B888B8B8B8A8B858B848B878B883
:1047760068B898B888B8B8B8A8B858B848B878B873
:1047860068B898B888B8B8B8A8B858B848B878B863
:1047960068B898B888B8B8B8A8B858B848B878B853
:1047A60068B898B888B8B8B8A8B858B848B878B843
:1047B60068B898B888B8B8B8A8B858B848B878B833
:1047C60068B898B888B8B8B8A8B858B848B878B823
:1047D60068B898B888B8B8B8A8B858B848B878B813
:1047E60068B898B888B8B8B8A8B858B848B878B803
:1047F60068B898B888B8B8B8A8B858B848B878B8F3
:1048060068B898B888B8B8B8A8B858B848B878B8E2
:1048160068B898B888B8B8B8A8B858B848B878B8D2
:1048260068B898B888B8B8B8A8B858B848B878B8C2
:1048360068B898B888B8B8B8A8B858B848B878B8B2
:1048460068B898B888B8B8B8A8B858B848B878B8A2
:1048560068B898B888B8B8B8A8B858B848B878B892
:1048660068B898B888B8B8B8A8B858B848B878B882
:1048760068B898B888B8B8B8A8B858B848B878B872
:1048860068B898B888B8B8B8A8B858B848B878B862
:1048960068B898B888B8B8B8A8B858B848B878B852
:1048A60068B898B888B8B8B8A8B858B848B878B842
:1048B60068B898B888B8B8B8A8B858B848B878B832
:1048C60068B898B888B8B8B8A8B858B848B878B822
:1048D60068B898B888B8B8B8A8B858B848B878B812
:1048E60068B898B888B8B8B8A8B858B848B878B802
:1048F60068B898B888B8B8B8A8B858B848B878B8F2
:1049060068B898B888B8B8B8A8B858B848B878B8E1
:1049160068B898B888B8B8B8A8B858B848B878B8D1
:1049260068B898B888B8B8B8A8B858B848B878B8C1
:1049360068B898B888B8B8B8A8B858B848B878B8B1
:1049460068B898B888B8B8B8A8B858B848B878B8A1
:1049560068B898B888B8B8B8A8B858B848B878B891
:1049660068B898B888B8B8B8A8B858B848B878B881
:1049760068B898B888B8B8B8A8B858B848B878B871
:1049860068B898B888B8B8B8A8B858B848B878B861
:1049960068B898B888B8B8B8A8B858B848B878B851
:1049A60068B898B888B8B8B8A8B858B848B878B841
:1049B60068B898B888B8B8B8A8B858B848B878B831
:1049C60068B898B888B8B8B8A8B858B848B878B821
:1049D60068B898B888B8B8B8A8B858B848B878B811
:1049E60068B898B888B8B8B8A8B858B848B878B801
:1049F60068B898B888B8B8B8A8B858B848B878B8F1
:104A060068B898B888B8B8B8A8B858B848B878B8E0
:104A160068B898B888B8B8B8A8B858B848B878B8D0
:104A260068B898B888B8B8B8A8B858B848B878B8C0
:104A360068B898B888B8B8B8A8B858B848B878B8B0
:104A460068B898B888B8B8B8A8B858B848B878B8A0
:104A560068B898B888B8B8B8A8B858B848B878B890
:104A660068B898B888B8B8B8A8B858B848B878B880
:104A760068B898B888B8B8B8A8B858B848B878B870
:104A860068B898B888B8B8B8A8B858B848B878B860
:104A960068B898B888B8B8B8A8B858B848B878B850
:104AA60068B898B888B8B8B8A8B858B848B878B840
:104AB60068B898B888B8B8B8A8B858B848B878B830
:104AC60068B898B888B8B8B8A8B858B848B878B820
:104AD60068B898B888B8B8B8A8B858B848B878B810
:104AE60068B898B888B8B8B8A8B858B848B878B800
:104AF60068B898B888B8B8B8A8B858B848B878B8F0
:104B060068B898B888B8B8B8A8B858B848B878B8DF
:104B160068B898B888B8B8B8A8B858B848B878B8CF
:104B260068B898B888B8B8B8A8B858B848B878B8BF
:104B360068B898B888B8B8B8A8B858B848B878B8AF
:104B460068B898B888B8B8B8A8B858B848B878B89F
:104B560068B898B888B8B8B8A8B858B848B878B88F
:104B660068B898B888B8B8B8A8B858B848B878B87F
:104B760068B898B888B8B8B8A8B858B848B878B86F
:104B860068B898B888B8B8B8A8B858B848B878B85F
:104B960068B898B888B8B8B8A8B858B848B878B84F
:104BA60068B898B888B8B8B8A8B858B848B878B83F
:104BB60068B898B888B8B8B8A8B858B848B878B82F
:104BC60068B898B888B8B8B8A8B858B848B878B81F
:104BD60068B898B888B8B8B8A8B858B848B878B80F
:104BE60068B898B888B8B8B8A8B858B848B878B8FF
:104BF60068B898B888B8B8B8A8B858B848B878B8EF
:104C060068B898B888B8B8B8A8B858B848B878B8DE
:104C160068B898B888B8B8B8A8B858B848B878B8CE
:104C260068B898B888B8B8B8A8B858B848B878B8BE
:104C360068B898B888B8B8B8A8B858B848B878B8AE
:104C460068B898B888B8B8B8A8B858B848B878B89E
:104C560068B898B888B8B8B8A8B858B848B878B88E
:104C660068B898B888B8B8B8A8B858B848B878B87E
:104C760068B898B888B8B8B8A8B858B848B878B86E
:104C860068B898B888B8B8B8A8B858B848B878B85E
:104C960068B898B888B8B8B8A8B858B848B878B84E
:104CA60068B898B888B8B8B8A8B858B848B878B83E
:104CB60068B898B888B8B8B8A8B858B848B878B82E
:104CC60068B898B888B8B8B8A8B858B848B878B81E
:104CD60068B898B888B8B8B8A8B858B848B878B80E
:104CE60068B898B888B8B8B8A8B858B848B878B8FE
:104CF60068B898B888B8B8B8A8B858B848B878B8EE
:104D060068B898B888B8B8B8A8B858B848B878B8DD
:104D160068B898B888B8B8B8A8B858B848B878B8CD
:104D260068B898B888B8B8B8A8B858B848B878B8BD
:104D360068B898B888B8B8B8A8B858B848B878B8AD
:104D460068B898B888B8B8B8A8B858B848B878B89D
:104D560068B898B888B8B8B8A8B858B848B878B88D
:104D660068B898B888B8B8B8A8B858B848B878B87D
:104D760068B898B888B8B8B8A8B858B848B878B86D
:104D860068B898B888B8B8B8A8B858B848B878B85D
:104D960068B898B888B8B8B8A8B858B848B878B84D
:104DA60068B898B888B8B8B8A8B858B848B878B83D
:104DB60068B898B888B8B8B8A8B858B848B878B82D
:104DC60068B898B888B8B8B8A8B858B848B878B81D
:104DD60068B898B888B8B8B8A8B858B848B878B80D
:104DE60068B898B888B8B8B8A8B858B848B878B8FD
:104DF60068B898B888B8B8B8A8B858B848B878B8ED
:104E060068B898B888B8B8B8A8B858B848B878B8DC
:104E160068B898B888B8B8B8A8B858B848B878B8CC
:104E260068B898B888B8B8B8A8B858B848B878B8BC
:104E360068B898B888B8B8B8A8B858B848B878B8AC
:104E460068B898B888B8B8B8A8B858B848B878B89C
:104E560068B898B888B8B8B8A8B858B848B878B88C
:104E660068B898B888B8B8B8A8B858B848B878B87C
:104E760068B898B888B8B8B8A8B858B848B878B86C
:104E860068B898B888B8B8B8A8B858B848B878B85C
:104E960068B898B888B8B8B8A8B858B848B878B84C
:104EA60068B898B888B8B8B8A8B858B848B878B83C
:104EB60068B898B888B8B8B8A8B858B848B878B82C
:104EC60068B898B888B8B8B8A8B858B848B878B81C
:104ED60068B898B888B8B8B8A8B858B848B878B80C
:104EE60068B898B888B8B8B8A8B858B848B878B8FC
:104EF60068B898B888B8B8B8A8B858B848B878B8EC
:104F060068B898B888B8B8B8A8B858B848B878B8DB
:104F160068B898B888B8B8B8A8B858B848B878B8CB
:104F260068B898B888B8B8B8A8B858B848B878B8BB
:104F360068B898B888B8B8B8A8B858B848B878B8AB
:104F460068B898B888B8B8B8A8B858B848B878B89B
:104F560068B898B888B8B8B8A8B858B848B878B88B
:104F660068B898B888B8B8B8A8B858B848B878B87B
:104F760068B898B888B8B8B8A8B858B848B878B86B
:104F860068B898B888B8B8B8A8B858B848B878B85B
:104F960068B898B888B8B8B8A8B858B848B878B84B
:104FA60068B898B888B8B8B8A8B858B848B878B83B
:104FB60068B898B888B8B8B8A8B858B848B878B82B
:104FC60068B898B888B8B8B8A8B858B848B878B81B
:104FD60068B898B888B8B8B8A8B858B848B878B80B
:104FE60068B898B888B8B8B8A8B858B848B878B8FB
:104FF60068B898B888B8B8B8A8B858B848B878B8EB
:1050060068B898B888B8B8B8A8B858B848B878B8DA
:1050160068B898B888B8B8B8A8B858B848B878B8CA
:1050260068B898B888B8B8B8A8B858B848B878B8BA
:1050360068B898B888B8B8B8A8B858B848B878B8AA
:1050460068B898B888B8B8B8A8B858B848B878B89A
:1050560068B898B888B8B8B8A8B858B848B878B88A
:1050660068B898B888B8B8B8A8B858B848B878B87A
:1050760068B898B888B8B8B8A8B858B848B878B86A
:1050860068B898B888B8B8B8A8B858B848B878B85A
:1050960068B898B888B8B8B8A8B858B848B878B84A
:1050A60068B898B888B8B8B8A8B858B848B878B83A
:1050B60068B898B888B8B8B8A8B858B848B878B82A
:1050C60068B898B888B8B8B8A8B858B848B878B81A
:1050D60068B898B888B8B8B8A8B858B848B878B80A
:1050E60068B898B888B8B8B8A8B858B848B878B8FA
:1050F60068B898B888B8B8B8A8B858B848B878B8EA
:1051060068B898B888B8B8B8A8B858B848B878B8D9
:1051160068B898B888B8B8B8A8B858B848B878B8C9
:1051260068B898B888B8B8B8A8B858B848B878B8B9
:1051360068B898B888B8B8B8A8B858B848B878B8A9
:1051460068B898B888B8B8B8A8B858B848B878B899
:1051560068B898B888B8B8B8A8B858B848B878B889
:1051660068B898B888B8B8B8A8B858B848B878B879
:1051760068B898B888B8B8B8A8B858B848B878B869
:1051860068B898B888B8B8B8A8B858B848B878B859
:1051960068B898B888B8B8B8A8B858B848B878B849
:1051A60068B898B888B8B8B8A8B858B848B878B839
:1051B60068B898B888B8B8B8A8B858B848B878B829
:1051C60068B898B888B8B8B8A8B858B848B878B819
:1051D60068B898B888B8B8B8A8B858B848B878B809
:1051E60068B898B888B8B8B8A8B858B848B878B8F9
:1051F60068B898B888B8B8B8A8B858B848B878B8E9
:1052060068B898B888B8B8B8A8B858B848B878B8D8
:1052160068B898B888B8B8B8A8B858B848B878B8C8
:1052260068B898B888B8B8B8A8B858B848B878B8B8
:1052360068B898B888B8B8B8A8B858B848B878B8A8
:1052460068B898B888B8B8B8A8B858B848B878B898
:1052560068B898B888B8B8B8A8B858B848B878B888
:1052660068B898B888B8B8B8A8B858B848B878B878
:1052760068B898B888B8B8B8A8B858B848B878B868
:1052860068B898B888B8B8B8A8B858B848B878B858
:1052960068B898B888B8B8B8A8B858B848B878B848
:1052A60068B898B888B8B8B8A8B858B848B878B838
:1052B60068B898B888B8B8B8A8B858B848B878B828
:1052C60068B898B888B8B8B8A8B858B848B878B818
:1052D60068B898B888B8B8B8A8B858B848B878B808
:1052E60068B898B888B8B8B8A8B858B848B878B8F8
:1052F60068B898B888B8B8B8A8B858B848B878B8E8
:1053060068B898B888B8B8B8A8B858B848B878B8D7
:1053160068B898B888B8B8B8A8B858B848B878B8C7
:1053260068B898B888B8B8B8A8B858B848B878B8B7
:1053360068B898B888B8B8B8A8B858B848B878B8A7
:1053460068B898B888B8B8B8A8B858B848B878B897
:1053560068B898B888B8B8B8A8B858B848B878B887
:1053660068B898B888B8B8B8A8B858B848B878B877
:1053760068B898B888B8B8B8A8B858B848B878B867
:1053860068B898B888B8B8B8A8B858B848B878B857
:1053960068B898B888B8B8B8A8B858B848B878B847
:1053A60068B898B888B8B8B8A8B858B848B878B837
:1053B60068B898B888B8B8B8A8B858B848B878B827
:1053C60068B898B888B8B8B8A8B858B848B878B817
:1053D60068B898B888B8B8B8A8B858B848B878B807
:1053E60068B898B888B8B8B8A8B858B848B878B8F7
:1053F60068B898B888B8B8B8A8B858B848B878B8E7
:1054060068B898B888B8B8B8A8B858B848B878B8D6
:1054160068B898B888B8B8B8A8B858B848B878B8C6
:1054260068B898B888B8B8B8A8B858B848B878B8B6
:1054360068B898B888B8B8B8A8B858B848B878B8A6
:1054460068B898B888B8B8B8A8B858B848B878B896
:1054560068B898B888B8B8B8A8B858B848B878B886
:1054660068B898B888B8B8B8A8B858B848B878B876
:1054760068B898B888B8B8B8A8B858B848B878B866
:1054860068B898B888B8B8B8A8B858B848B878B856
:1054960068B898B888B8B8B8A8B858B848B878B846
:1054A60068B898B888B8B8B8A8B858B848B878B836
:1054B60068B898B888B8B8B8A8B858B848B878B826
:1054C60068B898B888B8B8B8A8B858B848B878B816
:1054D60068B898B888B8B8B8A8B858B848B878B806
:1054E60068B898B888B8B8B8A8B858B848B878B8F6
:1054F60068B898B888B8B8B8A8B858B848B878B8E6
:1055060068B898B888B8B8B8A8B858B848B878B8D5
:1055160068B898B888B8B8B8A8B858B848B878B8C5
:1055260068B898B888B8B8B8A8B858B848B878B8B5
:1055360068B898B888B8B8B8A8B858B848B878B8A5
:1055460068B898B888B8B8B8A8B858B848B878B895
:1055560068B898B888B8B8B8A8B858B848B878B885
:1055660068B898B888B8B8B8A8B858B848B878B875
:1055760068B898B888B8B8B8A8B858B848B878B865
:1055860068B898B888B8B8B8A8B858B848B878B855
:1055960068B898B888B8B8B8A8B858B848B878B845
:1055A60068B898B888B8B8B8A8B858B848B878B835
:1055B60068B898B888B8B8B8A8B858B848B878B825
:1055C60068B898B888B8B8B8A8B858B848B878B815
:1055D60068B898B888B8B8B8A8B858B848B878B805
:1055E60068B898B888B8B8B8A8B858B848B878B8F5
:1055F60068B898B888B8B8B8A8B858B848B878B8E5
:1056060068B898B888B8B8B8A8B858B848B878B8D4
:1056160068B898B888B8B8B8A8B858B848B878B8C4
:1056260068B898B888B8B8B8A8B858B848B878B8B4
:1056360068B898B888B8B8B8A8B858B848B878B8A4
:1056460068B898B888B8B8B8A8B858B848B878B894
:1056560068B898B888B8B8B8A8B858B848B878B884
:1056660068B898B888B8B8B8A8B858B848B878B874
:1056760068B898B888B8B8B8A8B858B848B878B864
:1056860068B898B888B8B8B8A8B858B848B878B854
:1056960068B898B888B8B8B8A8B858B848B878B844
:1056A60068B898B888B8B8B8A8B858B848B878B834
:1056B60068B898B888B8B8B8A8B858B848B878B824
:1056C60068B898B888B8B8B8A8B858B848B878B814
:1056D60068B898B888B8B8B8A8B858B848B878B804
:1056E60068B898B888B8B8B8A8B858B848B878B8F4
:1056F60068B898B888B8B8B8A8B858B848B878B8E4
:1057060068B898B888B8B8B8A8B858B848B878B8D3
:1057160068B898B888B8B8B8A8B858B848B878B8C3
:1057260068B898B888B8B8B8A8B858B848B878B8B3
:1057360068B898B888B8B8B8A8B858B848B878B8A3
:1057460068B898B888B8B8B8A8B858B848B878B893
:1057560068B898B888B8B8B8A8B858B848B878B883
:1057660068B898B888B8B8B8A8B858B848B878B873
:1057760068B898B888B8B8B8A8B858B848B878B863
:1057860068B898B888B8B8B8A8B858B848B878B853
:1057960068B898B888B8B8B8A8B858B848B878B843
:1057A60068B898B888B8B8B8A8B858B848B878B833
:1057B60068B898B888B8B8B8A8B858B848B878B823
:1057C60068B898B888B8B8B8A8B858B848B878B813
:1057D60068B898B888B8B8B8A8B858B848B878B803
:1057E60068B898B888B8B8B8A8B858B848B878B8F3
:1057F60068B898B888B8B8B8A8B858B848B878B8E3
:1058060068B898B888B8B8B8A8B858B848B878B8D2
:1058160068B898B888B8B8B8A8B858B848B878B8C2
:1058260068B898B888B8B8B8A8B858B848B878B8B2
:1058360068B898B888B8B8B8A8B858B848B878B8A2
:1058460068B898B888B8B8B8A8B858B848B878B892
:1058560068B898B888B8B8B8A8B858B848B878B882
:1058660068B898B888B8B8B8A8B858B848B878B872
:1058760068B898B888B8B8B8A8B858B848B878B862
:1058860068B898B888B8B8B8A8B858B848B878B852
:1058960068B898B888B8B8B8A8B858B848B878B842
:1058A60068B898B888B8B8B8A8B858B848B878B832
:1058B60068B898B888B8B8B8A8B858B848B878B822
:1058C60068B898B888B8B8B8A8B858B848B878B812
:1058D60068B898B888B8B8B8A8B858B848B878B802
:1058E60068B898B888B8B8B8A8B858B848B878B8F2
:1058F60068B898B888B8B8B8A8B858B848B878B8E2
:1059060068B898B888B8B8B8A8B858B848B878B8D1
:1059160068B898B888B8B8B8A8B858B848B878B8C1
:1059260068B898B888B8B8B8A8B858B848B878B8B1
:1059360068B898B888B8B8B8A8B858B848B878B8A1
:1059460068B898B888B8B8B8A8B858B848B878B891
:1059560068B898B888B8B8B8A8B858B848B878B881
:1059660068B898B888B8B8B8A8B858B848B878B871
:1059760068B898B888B8B8B8A8B858B848B878B861
:1059860068B898B888B8B8B8A8B858B848B878B851
:1059960068B898B888B8B8B8A8B858B848B878B841
:1059A60068B898B888B8B8B8A8B858B848B878B831
:1059B60068B898B888B8B8B8A8B858B848B878B821
:1059C60068B898B888B8B8B8A8B858B848B878B811
:1059D60068B898B888B8B8B8A8B858B848B878B801
:1059E60068B898B888B8B8B8A8B858B848B878B8F1
:1059F60068B898B888B8B8B8A8B858B848B878B8E1
:105A060068B898B888B8B8B8A8B858B848B878B8D0
:105A160068B898B888B8B8B8A8B858B848B878B8C0
:105A260068B898B888B8B8B8A8B858B848B878B8B0
:105A360068B898B888B8B8B8A8B858B848B878B8A0
:105A460068B898B888B8B8B8A8B858B848B878B890
:105A560068B898B888B8B8B8A8B858B848B878B880
:105A660068B898B888B8B8B8A8B858B848B878B870
:105A760068B898B888B8B8B8A8B858B848B878B860
:105A860068B898B888B8B8B8A8B858B848B878B850
:105A960068B898B888B8B8B8A8B858B848B878B840
:105AA60068B898B888B8B8B8A8B858B848B878B830
:105AB60068B898B888B8B8B8A8B858B848B878B820
:105AC60068B898B888B8B8B8A8B858B848B878B810
:105AD60068B898B888B8B8B8A8B858B848B878B800
